:020000040800F2
:10000000F0050020D50000085D340008B331000879
:1000100000000000000000000000000000000000E0
:100020000000000000000000000000009334000801
:1000300000000000000000006F3400089534000844
:10004000E7000008E7000008E7000008E7000008F4
:10005000E7000008E7000008E7000008E7000008E4
:10006000E7000008E7000008E7000008E7000008D4
:10007000E7000008E7000008E7000008E7000008C4
:10008000E70000080000000000000000E700000892
:1000900000000000E7000008E7000008E700000893
:1000A000E7000008E7000008E7000008E700000894
:1000B0008543000800000000000000000000000070
:1000C0000348854600F03AFB00480047B14300086A
:1000D000F00500200448804704480047FEE7FEE79B
:1000E000FEE7FEE7FEE7FEE79D340008C1000008DA
:1000F000D2B201E00270401C491EFBD270470022C0
:10010000F6E710B513460A4604461946FFF7F0FF16
:10011000204610BD30B504460020034600E05B1CBD
:10012000934203D2E05CCD5C401BF8D030BDF8B503
:1001300002464A40D40F42004B0052085B089A42E4
:1001400002D20246084611464A0023D0C30D4A0097
:10015000DDB2120EAD1A202D35DA49020126490A08
:10016000F6058A19002C00D0524220214F1B11465F
:10017000B9402A411018C20D9A4221D0002C17D044
:10018000012D08DCDA05801AD20F8019D207DBB204
:1001900000F0D5F8F8BDDA05801A012340001B06EF
:1001A000C01880185A428018CA0F1043490007E04F
:1001B0004908C2071143DA05801A801940088018DF
:1001C00000F0B5F8F8BD61000122511A001BF7E7F5
:1001D0000122D2075140AAE70122D2075040A6E7E8
:1001E000024670B54A40D30FDB0740002DD04A00CD
:1001F0002AD0010E140E000212020919400A520AF6
:100200008418E50104465443000A120A2E045043A0
:10021000A4194219200CC543AA18120C0125AD03DC
:10022000521C521912047F39240400D0521C10436E
:1002300001D44000491EC2B20C06C0092018401C5F
:100240004008802A02D003E0002070BD4008400032
:10025000002900DA0020184370BD10B50022962353
:10026000114600F06CF810BDC20FD20740004008E4
:100270000BD0C10D0723DB01C91840020905400A54
:100280001143C208400711437047002001467047E0
:1002900070B50446002903D000202022012310E07D
:1002A000002801D00020C043C046C0460DE02546CE
:1002B000D5408D4205D30D469540641B1D469540A3
:1002C00040191546521E002DF1DC214670BDF0B5D7
:1002D0001FB40646002082B00546402401910090DC
:1002E0001BE0019922460F46304600F04FFA049A6F
:1002F000059B801A994110D310461946224600F0FA
:1003000035FA361A8F410197224601200021009FBD
:1003100000F02CFA38184D4100902046641E002849
:10032000DFDC019B00982946324607B0F0BD00296A
:1003300004DA401C490001D140084000704770B405
:100340000024050C05D11024000402D1002921D07D
:100350001124050E01D100020834050F01D100015E
:10036000241D850F01D18000A41C002801DB400062
:10037000641C002908D020252E1B0D46F540A14005
:1003800000D001212943084301061B1B000ADB1D85
:1003900002D5002070BC7047DB05181880180029B2
:1003A000F8DA401C4900F5D170BC400840007047A5
:1003B000F0B507460846584087B0C00F0490480083
:1003C0000E46590040084908BC1A884105D23846F3
:1003D00031461E4617460B46024658004008104359
:1003E0004CD0300D039040055900400D490D05904B
:1003F000401A0290402872DA18030121000B090507
:100400000843019004980092002805D001995242B7
:100410000020884100920190029840210A1A019917
:10042000009800F0A3F905460C466B4607CB00F098
:10043000BEF9C0197141039A0E0D0023D71756401B
:100440001A467A40164344D0049A002A2DD0029AC4
:10045000012A039A15DC1205C01A914101263605BE
:10046000001C7141D20F059ED207009301920296A3
:100470002A46234600F0BBF907B0F0BD38463146A6
:10048000FAE71605224A0F46B218C01AB7410121F1
:100490000905001C4F4100187F4111461818794189
:1004A000E20F10436D19644113E0E2076D08154334
:1004B0006408C2071443039A01261205C01A914129
:1004C0003605001C7141CE07400830434908C0186A
:1004D00051412A46234600F07DF9CDE7FFE7049815
:1004E00001224000C117121A00238B4104983146A3
:1004F000C417381AA141EEE730B40124E407634081
:1005000030BC55E730B40124E407614030BC4FE70C
:100510000000E0FFF0B51FB488B00B9909980024E3
:1005200048400999C00F490049080991C0070B9933
:100530000090490049080B9109990898A64608437C
:100540001CD00B990A98084318D009980124400040
:10055000420D4800410D099824050003000B20437B
:1005600009900B980003000B20430B9050181C4976
:100570004018002201901446104605E00020014674
:100580000DB0F0BD032801DA034600E003239C46CA
:10059000C11A0AAE0AE05F0008ADED5B4F00F75BE1
:1005A0007D430027AA187C41491C5B1E6145F2DD92
:1005B000410004AB5A522104120C0A43240C401C83
:1005C0000828DFDB019802900099704601910090A5
:1005D000059B049A0799069800F009F9D0E70000F6
:1005E0000DFCFFFFF0B50C465C4085B0E40FE4075E
:1005F00003944C00002664085900944649080246BA
:100600000296224321D062460A431ED06200570D53
:100610004A000E032303550D012402462C492405EC
:10062000781B1B0B360B4018234326436146009072
:100630001C46501AB44103D30098401C009002E0BD
:10064000921800985B41002803DA0020014605B0AB
:10065000F0BD0020012109050746864611E06446E9
:100660001D46141BB54106D36546521BB341744663
:1006700007430C43A646CD07400849082843921873
:100680005B4105460D43EAD11046184313D060463E
:10069000194650407140084306D06046101AB341D5
:1006A00006D20122002306E000220123DB0702E03C
:1006B0000122D2435310009874460105381C614151
:1006C000029C039D0019694100F084F8BFE7000017
:1006D000FD0300004A0009030123090B1B05194310
:1006E0000A4B10B5520D9A4202DA0020014610BDA5
:1006F000064B34339A4203DC9A1A00F047F810BDD7
:10070000034BD21800F032F810BD0000FF030000C8
:10071000CDFBFFFF10B5002904DB0124E4074042B4
:100720008C412146002B04DB1C460123DB0752428F
:10073000A341994200D1904210BD00001CB5094868
:1007400000900948019005460126009C05E0E368F9
:1007500007CC33430C3C98471034AC42F7D3FFF737
:10076000B3FC000084510008A451000810B5202AF1
:1007700004DB0146203A9140002010BD9140202327
:100780009C1A0346E3401943904010BD10B5202A3F
:1007900004DB0846203AD040002110BD0B46D34070
:1007A000D0402024A21A91400843194610BD10B52C
:1007B000202A06DBCB170846203A1041C1170B430D
:1007C00006E00B461341D0402024A21A9140084372
:1007D000194610BD10B5002B08DA0024401C6141F9
:1007E00092185B411A4301D14008400010BDF0B59A
:1007F0001FB482B005460C0003D0084603F02EFE5D
:1008000002E003F02BFE20300246009021462846ED
:10081000FFF7ACFF049B059A04460F4618431143AB
:10082000084314D0184610431BD0009840210A1AE0
:1008300018460599FFF7AAFF05460E46009A059946
:100840000498FFF793FF084305D0012004E02046F9
:10085000394607B0F0BD0020C11705430E432C43B5
:10086000374300990E986305401A7905E40A00227F
:100870000C43FD0A0A3002D500200146E9E70105D4
:10088000101969410C9C0D9D00196941FFF7A2FFE9
:10089000DFE70000F0B581B0054600240094006851
:1008A0008168C9071CD181682B4A2F3211420AD0B6
:1008B000A86D10210143A965E86D01242043E86576
:1008C000204601B0F0BD8168234A11400127394319
:1008D000816022480068000205D4687E012825D185
:1008E000204601B0F0BD1E4800681E49FFF7D0FC4D
:1008F000401C009000980028EFD00098401E009007
:1009000000980028E9D00098401E00900098002828
:10091000E3D00098401E009000980028DDD0009899
:10092000401E009000980028E7D1D6E700F04AFF6B
:10093000064604E000F046FF801B0328B8D2286872
:100940000168C907CCD18168C907F3D18168024A1F
:10095000114039438160EDE7E8FFFF7F0827014040
:100960000C000020400D0300B0B510A004F0F2F917
:100970001AA004F0EFF9224D0020A8706860A87852
:1009800000280FD11FA400F0F5F90A2000F034FE72
:1009900000F0E6F964214143204603F04FFDA878BA
:1009A0000028F0D01D4804F0D5F9B0BD0D0A2D2D5A
:1009B0002D204D4F444F204445204D4F4E49544F1C
:1009C00052414D454E544F204445204652455155C5
:1009D000454E434941202D2D2D0D00005072657369
:1009E00073696F6E652061207465636C6120277187
:1009F00027207061726120736169722E0D0A0D00EB
:100A0000100000204672657175656E6369613A2059
:100A1000252D31307520487A0D0000002A4F00083E
:100A200080B507A004F096F90FA004F093F9CA4826
:100A300003F004FD16488349012202F08DFA80BDBF
:100A40002D2D2D2D2D20434C492064652056616CA1
:100A500069646163616F20646520504342202D2DDD
:100A60002D2D2D0D00000000446967697465202755
:100A700068656C7027207061726120766572206FE6
:100A80007320636F6D616E646F732E0D0000000044
:100A900054010020B0B56B4D6878002800D19DE06E
:100AA0002C46083468A0214603F0C8FC68A1052242
:100AB0002046FFF72FFB002845D067A109222046DA
:100AC000FFF728FB002866D066A10A222046FFF720
:100AD00021FB002865D066A105222046FFF71AFBFE
:100AE000002864D064A106222046FFF713FB0028EB
:100AF00064D0A8686249884271D062A10922204668
:100B0000FFF708FB002871D061A10C222046FFF7F7
:100B100001FB00287DD061A10A222046FFF7FAFAE6
:100B2000002879D060A10C222046FFF7F3FA0028B4
:100B300078D060A10D222046FFF7ECFA002879D08A
:100B400060A0214637E0774804F004F9764804F0C5
:100B500001F9764804F0FEF8754804F0FBF8754892
:100B600004F0F8F8744804F0F5F8744804F0F2F86A
:100B7000734804F0EFF8734804F0ECF8724804F09E
:100B8000E9F8724804F0E6F8714804F0E3F87148B7
:100B900004F0E0F81DE002F074FC614804F0DAF8BB
:100BA00017E002F065FC5D4804F0D4F811E002F0B3
:100BB000F5FC0146584803F041FC0AE002F0EEFC67
:100BC00002F0D8FCFFF750FB024652480B4603F0F8
:100BD00035FC00206870604803F030FCB0BD02F0C6
:100BE0003EFC012812D048A14948E4E741480A24C4
:100BF000214603F023FC00F0BDF8204600F0FCFC89
:100C000000F0AEF8642141433B48D4E73BA14048A3
:100C1000D1E7FFF7A9FEDCE700F0ACF8344804F0B8
:100C200099F8D6E72F48002101F058FD2F4804F02D
:100C300091F8CEE72B48002101F0BCFD2A4804F0D2
:100C400089F8C6E71000002025730D0A0000000097
:100C500068656C700000000072656C6179206F6ED1
:100C60000000000072656C6179206F66660000000C
:100C700074656D700000000074656D7063000000A5
:100C80006F7363006F73632066726563000000001A
:100C90006F7363206D6F6E69746F72006F73632082
:100CA0007265736574000000746573742070776DED
:100CB000206F6E00746573742070776D206F6666A8
:100CC00000000000436F6D616E646F2064657363A4
:100CD0006F6E68656369646F3A20272573270D0A74
:100CE0000000000008010020D54F0008874F0008D1
:100CF000F24F0008FC4D00086C4E00084849474878
:100D000020283129000000004C4F572028302900AE
:100D1000334E00081D4E00084D4E0008C44F000819
:100D2000B64F00084B4F0008765000089650000858
:100D30008D4E000815510008E8500008BE4E00080E
:100D40003C500008F44E000845510008B950000816
:100D500016500008694F00087A51000872B6FEE785
:100D600007480068406A704780B5054801F068FA96
:100D700080BDC04602480068002141627047C046FD
:100D8000BC000020F0B587B0002506955422825C97
:100D9000012A03D10224204607B0F0BD064654368E
:100DA00001243470026893685B0714D407694B68A8
:100DB000022B18D104200743994887426DD19748E8
:100DC000C0430B68D9430143906A084090620024F5
:100DD000002B66D4D2E0816D20220A4382653570F3
:100DE000204607B0F0BD059304231F438C4CA74257
:100DF00062D10F683846894B1840936A0343936267
:100E00003802536983438968014086480840184383
:100E100050610024002F00D4B0E0032082058248F6
:100E20000368194611403846804F0490B84200D0FC
:100E300096E07A4F7F1CB94200D391E07A4803686C
:100E400093431943754A5118491C01607948006859
:100E50007949FFF71DFA0C214143481C069006987A
:100E6000002800D18AE00698401E069006980028C7
:100E700000D183E00698401E0690069800287DD099
:100E80000698401E06900698002877D00698401EC7
:100E9000069006980028E6D170E00B680024002B2D
:100EA0006CD5FA480168624A93426BD05F4A93421C
:100EB00064D10122920567E01F27059C27400F247B
:100EC00000940397BC40076E0194A74302970C68F7
:100ED000524F3C42049462D0E4072F4667D1049FEE
:100EE000BC075FD47C075FD43C075FD4FC061F4679
:100EF0005DD4049CA30671D4630671D4230671D417
:100F0000E30571D4049B9B0570D4049B5B056FD4EF
:100F1000049B1B056ED4049BDB046DD4049B9B04D3
:100F20006CD4049B5B046BD4049B1B04009F3ED4D5
:100F3000049BDB0366D4049B9B0365D4049B5B0387
:100F400064D4049B1B0363D4049BDB0262D4049B24
:100F50009B0261D4049B5B02DB1716271F4026E02F
:100F6000334F0498B84209D10127BF053B4005D152
:100F7000C64803689343194339430BE03570204654
:100F800007B0F0BD254A521C1140032292050368A8
:100F90009343591801603570204607B0F0BD6300D7
:100FA000DF0E04E0012702E0022700E00327039C94
:100FB000A740029B1F430766059B9B08C069984298
:100FC0000AD90198C043936A0340049FB800000FF8
:100FD000A0401843906213E7049F11E70527E6E756
:100FE0000627E4E70727E2E70827E0E70927DEE727
:100FF0000A27DCE70B27DAE70C27D8E70D27D6E727
:101000000E27D4E71027D2E71127D0E71227CEE723
:101010001327CCE71427CAE71527C8E7FFFF7F008F
:101020000400008000FFFF7F08270140000200A4A9
:10103000000400A80C000020400D03000068006CB4
:1010400070470000F0B589B0044600200890002CDD
:1010500076D00790A06D002807D12546543520464C
:1010600000F016F900202870E06501273D0726688A
:10107000B068C00026D4B0687F4901402943B16000
:101080007E4800687E49FFF703F940000890089801
:10109000002817D00898401E08900898002811D002
:1010A0000898401E0890089800280BD00898401E09
:1010B00008900898002805D00898401E08900898C5
:1010C0000028E7D1B068284208D1A06D1021014363
:1010D000A165E06D012107910843E065B068042136
:1010E0000140A26D102002405118A16D2BD1069035
:1010F0000F20C7433A46F33A1140891CA165B168F5
:10110000C9077DD10390049727462037216B4A1EDB
:1011100091410D03A168227E92030A43617EC903B7
:101120001143A27E50030843E36803432B4301208D
:10113000C507216900290590029509DAA94308E04D
:10114000012009B0F0BD0143A165384609B0F0BDEA
:1011500041050B43387B45001D433878012809D1F0
:10116000002A11D0A06D20210143A165E06D0599F1
:101170000843E065626A002A0CD007208001024023
:10118000A16A1143294306E0059800040543626AF9
:10119000002AF2D12946F0683A4A02400A43F26036
:1011A0000320820763681D461540E16C387F0128E3
:1011B0000ED1206C0090676CA06C019000980743E2
:1011C000019807432F430F43059807433D4600E02E
:1011D0000D43049F30692C49014029433161029835
:1011E000834203990CD093420AD00598800783422A
:1011F00006D08804034025490A688243D018086055
:10120000706907229043656B284370617069702193
:101210008843A16B090101437161216901235805CC
:10122000814203D000290BD1B06A07E0B06AE069BF
:1012300080001C301C2101408F40206E3843B0627A
:1012400070691040A8420AD10020E065A06D01211C
:10125000014302208143A165079809B0F0BDA06D4C
:101260000699084302218843A065E06D1843E065B4
:10127000184609B0F0BDC046E8FFFF6F0C00002023
:10128000400D03000102DEFF02FCFF1F08270140A2
:1012900010B58EB000240D940C940B940A9409940C
:1012A00008940794069405940494039402940068A7
:1012B0001449884201D00EB010BD2020019001A831
:1012C00000F0FAFA002801D0FFF748FD0E48C26886
:1012D000012109910B051A43C260C2681A400092AD
:1012E000009A02680A4302600068084000900B946C
:1012F00003200A9005200007009909A900F08CF945
:101300000EB010BD0024014034100240F0B581B091
:101310000D4604464069082801D1082704E02068EA
:10132000C068C0073FD1042700F04CFA0646216888
:10133000086838421CD001204202A36D1343A36504
:10134000CA681205920F4AD1A27E002A47D10A68C4
:10135000120744D58A68520738D4224658324B685F
:101360000C25AB434B60FF2502351368AB4334E0DB
:10137000002D1FD0681C10D108683842DBD10868E6
:101380003842D8D108683842D5D108683842F3D0FD
:10139000D1E7216808683842CDD100F013FA801BEC
:1013A000A842F6D908E0A06D20210143A1650120E3
:1013B00001B0F0BD00F006FA542000212154A06DC8
:1013C00004210143A165032001B0F0BDA26D2023DB
:1013D0001343A36522465C32E36D03431360227E10
:1013E0000020002A01D001B0F0BD0C220A6001B03B
:1013F000F0BD000070B50146006882680220520707
:1014000011D454228A5C012A0DD00C465434012098
:10141000054620700E460846FFF73CFA002803D028
:1014200000202070284670BDB06D094901400120A0
:1014300000020818B0650020F06531681C220A60BF
:1014400020708A68304B13401A1D8A6070BDC046F8
:10145000FEF0FFFFF0B581B004465420205C012867
:1014600002D1022001B0F0BD264654360127377064
:101470002068816849071FD481688268D20737D005
:101480000222114034D1816805220A40012A27D165
:1014900081681D4A0A40911C81600321016000F0AF
:1014A00091F9054620688068C00721D000F08AF9CC
:1014B000401B0328F6D313E08168890704D48168B0
:1014C000114A0A401032826000F07CF9054620681B
:1014D00081684907D0D500F075F9401B0328F6D381
:1014E000A06D10210143A165E16D5C34384605E033
:1014F000FF200230A16D8143583400200022327059
:101500003943216001B0F0BDE8FFFF7F70B50028CE
:101510002CD0014624314A78022A29D10468226855
:101520000E239A432260426C1568314B1D401560B2
:101530002568012295432560046C1C25254014462E
:10154000AC402C4D2E6826432E60846CC56C6560C3
:10155000046D002C05D025681D402560436D806D0D
:1015600058604A70002000220A7070BD012070BDD2
:101570000422C263012000220A7070BD70B52421CC
:1015800001244454014624314A78022A2BD10368AD
:101590001A680E24A2431A601C68012294431C603E
:1015A000446C2568124B1D402560046C1C252540A9
:1015B0001446AC400F4D2E6826432E60846CC56CDB
:1015C0006560046D002C05D025681D402560436DC5
:1015D000846D5C6000240C704A70816B002900D01F
:1015E0008847204670BD0421C163204670BDC046B7
:1015F000FFFEFFFF04000240B0B5044600F0E2F831
:101600000546601C02D08C480078241800F0DAF8F7
:10161000401BA042FAD3B0BDF0B58AB00690099144
:101620000B68002B00D1B4E05B480699814201D0E1
:10163000062000E005200B221207069989180A22CD
:10164000D1410091042900D30090069820300190E8
:1016500000252E46079529460FE01A436260089937
:10166000491C099803681846C8400835B61C079AF3
:10167000121D0792002800D18BE00124204608911A
:10168000884003400393EAD0049509994A681021E1
:101690001143122915D11C21079A114005960F26D6
:1016A00032468A40089BDB089F00019BDD59954329
:1016B000099A12693240059E8A402A43DA510999F3
:1016C0004A68032311461940B1400293B34037469C
:1016D000069E35689D430D4335603E46D9430591CE
:1016E000122A049D15D894402E490C420FD0069C16
:1016F000A168059B1940099BDB68B3400B43A360BD
:101700001109089B9940636883430B436360032A74
:10171000A5D0069BD8680599084009998968B14009
:101720000143D960D0009AD5182028400F2181406C
:10173000089A029B9A43194CA218136E8B43009986
:101740008140194311661648026809984068C10330
:1017500002D5039B1A4301E0039B9A4310490A6098
:101760004A68810301D51A4300E09A430C494A6054
:101770002268C10205D51A4322606268800206D53C
:101780006BE79A4322606268800200D565E79A435E
:1017900064E70AB0F0BDC0460014005000180240D3
:1017A000801802400600060000690840411E88417A
:1017B0007047002A02D01822815070472822815099
:1017C00070470000054800687047C0461A48007816
:1017D00002490A68101808607047C046E8010020F6
:1017E00080B5032000F008F8002801D0012080BD5A
:1017F00000F024F8002080BD70B50F4E3178012430
:10180000002916D005467D20C000FEF741FD0146A7
:10181000F0480068FEF73CFD00F0BAFB032D08D845
:10182000002806D10024E0432946224600F028F88B
:101830007560204670BDC0460400002082B0094893
:1018400041680122114341604168114001910199B1
:10185000110702680A43026000680840009000987F
:1018600002B070473C100240002805D41F210840F8
:1018700001218140014801607047C04600E100E05D
:10188000002805D40322034693430A4A9A1803E02A
:101890000C220240064BD2188007C00E8901C9B243
:1018A0008140FF23834010689843084310607047CD
:1018B00014ED00E000E400E0F0B585B004460078E7
:1018C00040064C4E01D4002035E001200107374688
:1018D000203F3A6803910A40029207D13968039A7F
:1018E0001143396039681140049104990321019131
:1018F0000A023168114010D0E26991420DD031687E
:101900000004326802433260326882433260084623
:10191000394A10403060C8075AD13068364908400B
:10192000E1690143316000200299002903D139683F
:10193000039A914339602168CA070BD18A0713D4EF
:101940008A061CD40A0725D44A072DD4090636D4A2
:1019500005B0F0BD3246083A13680325AB43A568CD
:101960001D4315608A07EBD5032212033346083B5B
:101970001D689543E2682A431A608A06E2D503226D
:1019800092073346083B1D689543A2692A431A60B3
:101990000A07D9D501221203331F1D6895436269D6
:1019A0002A431A604A07D1D5032292033346083BE3
:1019B0001D68954322692A431A600906C8D55C3E12
:1019C0003168E022914362680A43326005B0F0BD9D
:1019D000FFF7F8FE0546306880079ED4FFF7F2FE59
:1019E000401B7B498842F6D90198029900299ED074
:1019F000A1E7C0465C100240FFFCFFFFF0B583B0DA
:101A00000D460146012000296BD0029101906F48DC
:101A1000006807273840854215D96C490868B843E3
:101A2000284308606A4CFFF7CDFE06466748006809
:101A30003840A84207D0FFF7C5FE801BA042F5D969
:101A4000032003B0F0BD029B186881079F4C10D59E
:101A5000410707D57B21090222688A430B2109022D
:101A6000511821600F21090222688A43D968114365
:101A70002160C0071AD1554800683840854232D2EB
:101A800052490868B84328430860514CFFF79AFE52
:101A900006464E4800683840A84224D0FFF792FE20
:101AA000801BA042F5D9032003B0F0BD2246083ABE
:101AB00010681C2188439968014311605968032903
:101AC00043D8880001A31B5801989F46DD1A0008DF
:101AD000431B0008331B00083B1B0008126852051B
:101AE00037D403B0F0BD029A10784007774C05D583
:101AF0003803216881431069084320602046083874
:101B0000016822689206520F06D0226838200240EF
:101B1000082A07D16E4842E000688004420F6D48F1
:101B2000D0403CE022680240202A2AD10120C00394
:101B300035E012681202D4D50BE0A26D9207D0D521
:101B400007E012689203CCD503E0606D800701982E
:101B5000C7D52068B84308432060FFF733FE064628
:101B600020683821014002984068C000814282D03C
:101B7000FFF728FE801B16498842F1D9032003B0E5
:101B8000F0BD22680240182A02D17D20000206E042
:101B900022680240102A01D0002000E04D48C9060A
:101BA000490F491CFEF774FB216889093C220A4051
:101BB0002B4989581F220A40D040F2490860F24858
:101BC0000068FFF719FE03B0F0BDC04600200240D8
:101BD000881300000C00002010B53C4C204608384B
:101BE000016822689206520F06D02268382002400F
:101BF000082A07D136481AE000688004420FE048FE
:101C0000D04014E022680240202A02D10120C00303
:101C10000DE022680240182A02D17D20000206E071
:101C200022680240102A01D0002000E0D448C906F2
:101C3000490F491CFEF72CFB216889093C220A4008
:101C4000074989581F221140C840CE4908602168C1
:101C5000890A1C230B400349C9581140C84010BDD4
:101C6000744D0008B44D000880B518480246083A83
:101C7000116803689B065B0F06D003683822134087
:101C8000082B07D112481AE010688004420FBC48A4
:101C9000D04014E003681340202B02D10120C00380
:101CA0000DE003681340182B02D17D20000206E0EE
:101CB00000681040102801D0002000E0B048C9069C
:101CC000490F491CFEF7E4FA80BDC04608100240E7
:101CD00000127A00006CDC02F0B581B004460120ED
:101CE000002C00D148E100902078C007A34E08D016
:101CF000B068382202406168082A4BD1002900D11F
:101D000090E02078800721D42078000709D5B068BA
:101D100038220240A169182A00D086E0002900D1AB
:101D200080E0207840070AD5B06838220240A168D8
:101D3000202A00D08DE00029009800D11CE12078F5
:101D40000025C00637D4284601B0F0BDE268B0686F
:101D50008006400F47D0306801218F02002A00D151
:101D600084E00722D20290432269024332600802D3
:101D7000316801433160FFF725FD05463068384280
:101D800000D09BE0FFF71EFD401B0228F6D9032080
:101D900001B0F0BD306801235F041A04914207D0FE
:101DA00005252D04A94272D199040843306030689A
:101DB0001043306073E030680121CF05E269890586
:101DC000002A00D183E008433060FFF7FBFC0446A3
:101DD00030683842B7D1FFF7F5FC001B0228F7D96D
:101DE000032001B0F0BD002A1CD07F2000027168E2
:101DF000814360690002084370600720C0023168B7
:101E0000814320690843306030688004400F5C499A
:101E1000C1405C4801605C480068FFF7EDFC0028A9
:101E200000D171E7009801B0F0BD306E00295ED09E
:101E3000012108433066FFF7C5FC0546306E800778
:101E400000D56EE7FFF7BEFC411B03200229F5D940
:101E500092E0F06D012905D0052959D104210843EC
:101E6000F065F06D01210143F1655AE009028843F4
:101E70003060FFF7A7FC05463068384200D143E7E1
:101E8000FFF7A0FC411B03200229F5D974E0904321
:101E900030609804326882433260002950D0FFF7E6
:101EA00091FC05463068384200D02AE7FFF78AFCEB
:101EB000401B6428F6D9032001B0F0BD7F2000024A
:101EC0007168814360690002084370601CE78843C1
:101ED0003060FFF777FC04463068384200D132E7C3
:101EE000FFF770FC011B03200329F5D344E0012117
:101EF00088433066FFF766FC0546306E800700D4E5
:101F00000FE7FFF75FFC411B03200229F5D933E0FF
:101F100001229043F065F06D04229043F0650029A2
:101F20001CD01A4FFFF74EFC0546F06D800700D518
:101F300005E7FFF747FC411B0320B942F5D91BE039
:101F4000FFF740FC05463068384200D1D9E6FFF77C
:101F500039FC411B03206429F5D90DE00B4FFFF735
:101F600031FC0546F06D800700D4E8E6FFF72AFC57
:101F7000411B0320B942F5D901B0F0BD0010024069
:101F8000006CDC020C000020080000208813000018
:101F9000401E010E01D0012070470749074A5060DA
:101FA000074803680B400321890759180160002086
:101FB0009060072111607047FFFFFF0010E000E014
:101FC00020ED00E0F0B53C22825C012A01D1022024
:101FD000F0BD02463C323F231B02CC689C430F23DA
:101FE0009B028D689D4325434B681D4C1C402C4330
:101FF0000B681C4D1D4025430B691B4C1C402C439A
:102000004B692343194C1C400B6B194D1D40254354
:10201000CB692B438C692404164D25401D4303686E
:102020009948834204D02C46002010705C64F0BDB7
:10203000114805400E46203651CEC96A36050F4F6D
:1020400037402F4311256D06A843384301256D07FE
:10205000AC4304430C43002010705C64F0BDC046E8
:10206000FF87F0EFFF8FF0EFFF9FF0EFFFBFF0EF84
:10207000FFFFF0EF0000FFEFFFFF0FDC0000F0DCE0
:1020800070B53C22825C012A01D1022070BD02465B
:102090003C32022353700068456883687A4CA04242
:1020A00001D02E4604E00F263605B5434E682E4378
:1020B0007025AE430D68354345600125AE07B0423B
:1020C00004D0A04202D0714CA04204D18024A3438A
:1020D00089681943816000201070557070BDC0463A
:1020E00070B5002828D005463C356978002905D10F
:1020F00000212970044600F063F82046022169702F
:102100000268166801218C07A24205D05E4B9A42F4
:1021100002D05E4B9A4211D170239E4383683343B1
:10212000244EB2420EDCA24215D0584CA24212D02C
:10213000224CA2420FD03AE0012070BD33461D4E22
:10214000B242F0DD504CA24205D01B4CA24202D05C
:10215000394CA2422BD103242402A34304691C431B
:10216000C368D362436893628369474EB24205D025
:10217000114EB24202D0304EB24201D140691063DA
:1021800010680426064316605161802084431C4376
:1021900014602973A970E97029716971A971E971D5
:1021A00029726972A972E9726970002070BD1C46BB
:1021B000D6E7C046FF2B0140004801400020004008
:1021C00010B586B00021059104910391029101910F
:1021D0000068194A904222D02B4A904229D101200E
:1021E000C202164B1C6814431C601C681440009407
:1021F000009A0C3B1A6802431A601A680240009267
:10220000022205920491039102920002019000982B
:102210000520000701A9FFF7FFF906B010BD012056
:10222000400406490A6802430A60096801400091B7
:10223000009806B010BDC046004401404010024066
:1022400010B53D21415C01291CD101463D310222DE
:102250000A70016801229007814205D0E04881425E
:1022600002D00A48814208D18868094B0340002007
:10227000062B06D01404A34203D00868104308605C
:10228000002010BD012010BD002C014000040040C2
:1022900007000100F0B582B03C23C35C012B02D1E2
:1022A000022002B0F0BD03463C330224E241052A7D
:1022B00000D9ABE07A441279520097440274405737
:1022C000248A0268106A156A0126B5431562A04384
:1022D0008E68064350680C6801949569FA4FBA42BB
:1022E00006D0FA4CA24203D0F94CA24200D014E12D
:1022F0000C24A643CC680427BC43F34F3443BA42B2
:1023000000D00DE112E10268146AB7487330156A13
:102310000540156257688D6801950D680095566DEA
:10232000E94DAA4206D0E94DAA4203D0E84DAA429F
:1023300000D0A4E00740486905023D43A0E00268E0
:10234000106A01242502166AAE4316626402A04395
:102350008C682702074350680C680194D569DA4CF1
:10236000A24258D03E46A24261D166E00268156A98
:1023700001242003166A8643166250688E6801960F
:102380000E680096D769D04EB24206D0CF4EB24208
:1023900003D0CF4EB24200D0A4E0A603B0434E69B2
:1023A000B60106439FE00268106A146A1025AC4328
:1023B00014622024A0438C682701074350680C68EE
:1023C00001949469F64DAA4240D03E46AA4247D1B4
:1023D0004CE00268156A01242005166A86431662DD
:1023E00050688E6801960E680096576DEC4EB242AA
:1023F00006D0EC4EB24203D0EB4EB24200D0CAE05F
:10240000A604B0434E69B6020643C5E00120002190
:10241000197002B0F0BD0326B602B743744CFF3CFE
:10242000CE6836022640DE4C3E43A24205D0DD4C4B
:10243000A24202D0DC4CA2423ED103242403A0439A
:102440004C698F6927433C01044336E0C026B743FB
:10245000CE6836014025AE43D14D3E43AA4205D059
:10246000D04DAA4202D0D04DAA4267D10325AD0279
:10247000A8434D698F692F43BD0005435FE03D468A
:10248000104654305560584DED1C2E40009D2E4393
:1024900056654D68956501256D04AC43019D2D047D
:1024A00025431562546D082525435565546D042553
:1024B000AC43546509698AE0044610461C305460F8
:1024C000494C2540019C2543D5614C68D463166274
:1024D000D46908252543D561D4690425AC43D4616A
:1024E000096974E0064610461C3056603F4E37407E
:1024F000009E36023E43D6614E6816646603B543BD
:10250000019E36032E431662E502D6692E43D6613C
:10251000A402D569A543D56157E03446BA4205D037
:10252000CD4EB24202D0CD4EB2421ED1032636026B
:10253000B0434E698F6906433E4317E00546104697
:1025400018305560294D2C40019D2D022543956181
:102550004C68946316620124E50296692E439661E5
:10256000A4029569A54395612FE0064610461830F0
:1025700056601D4E3540019E354395614D6855634B
:102580001462946908252543956194690425AC4338
:10259000946109691BE00646104654305660114E9E
:1025A0003740009E36023E4356654E68D665660546
:1025B000B543019E36052E431662E502566D2E4345
:1025C0005665A402556DA54355650969090202685F
:1025D0000A43026000200021197002B0F0BDC0461D
:1025E000002C0140FF8FFFFE8CFFFEFFFF8CFFFEE3
:1025F000FFFBFFFF70B5002828D005463C35697801
:10260000002905D100212970044600F065F8204614
:10261000022169700268166801218C07A24205D068
:102620008C4B9A4202D0614B9A4211D170239E4347
:1026300083683343594EB2420EDCA24215D05B4C44
:10264000A24212D0234CA2420FD03AE0012070BD2A
:102650003346524EB242F0DD7E4CA24205D07E4C53
:10266000A24202D07D4CA2422BD103242402A343D8
:1026700004691C43C368D362436893628369754EDF
:10268000B24205D0744EB24202D0744EB24201D171
:10269000406910631068042606431660516180206B
:1026A00084431C4314602973A970E970297169710E
:1026B000A971E97129726972A972E97269700020C1
:1026C00070BD1C46D6E7C046002C014000480140C2
:1026D000004401400020004070470000B0B50246B1
:1026E0003E32002909D00C1F0223DC41042C0AD3FE
:1026F0004325455D012D0BD014E01378012B11D13A
:102700000223137017E025463F35455D012D09D1A1
:10271000032C0FD87C4424796400A74401090507E1
:10272000537008E00120B0BDD37004E0137102E0E3
:10273000937000E053711F221140012213468B4019
:102740000168086A98430862086A184308621348D7
:1027500081420FDD3F48814205D03F4B994202D074
:102760003E4B994215D1D3034C6C1C434C648142BF
:102770000FD105E09007814202D00C48814208D178
:1027800088680B4B03400020062B06D01404A3429C
:1027900003D00868104308600020B0BDFF2B014043
:1027A000002C01400048014000440140000400406A
:1027B0000700010070B51F230B40012214469C4006
:1027C00003681D6AA5431D621C6A1C62204C214DD2
:1027D000AB4205D0204DAB4202D0204DAB4206D1DA
:1027E0001D6A254203D11D6A1D4E35420AD01D6A5D
:1027F00025420ED11C6A1A4D2C420AD11C68944302
:102800001C6006E0D5035E6CAE435E641D6A254223
:10281000F0D03E300223D941042915D879440979F2
:1028200049008F44020E080B05000270002070BDA5
:102830000271002070BD8270002070BDC270002047
:1028400070BD4270002070BD4271002070BDC04656
:1028500011110000002C01400048014000440140DB
:102860004404000070B53C22825C012A01D10220A0
:1028700070BD04463C340222627001252570064674
:1028800000F014FE0028284603D000212170657056
:1028900070BD3068C16840229143C1600121890345
:1028A000C2688A43C260002000212170657070BD3B
:1028B000B0B58421415C012901D10220B0BD01469F
:1028C000843124224A600268136814680125AC43ED
:1028D00014606C07A34313600022426610460A701E
:1028E00020224A60B0BD704770470000F0B583B049
:1028F000054668352A7F012A02D1022003B0F0BDC7
:10290000064688362422326007683A6802923A689E
:102910000124A2433A6007225206BB6893430B434B
:10292000BB60406E0028204615D0B8680190B8689A
:10293000400F2E49095C2E4A105CC000FDF7A8FC30
:10294000044601980001400F2849095C284A105CA0
:10295000C000FDF79DFC28806C8002983860002044
:1029600028772021316003B0F0BDC046F0B583B0B8
:10297000054668352A7F012A02D1022003B0F0BD46
:10298000064688362422326007683A6802923A681E
:102990000124A2433A6007225207BB6893430B43CA
:1029A000BB60406E0028204615D0B8680190B8681A
:1029B000400F0E49095C0E4A105CC000FDF768FC30
:1029C000044601980001400F0849095C084A105C60
:1029D000C000FDF75DFC28806C8002983860002004
:1029E00028772021316003B0F0BDC046F44D0008C7
:1029F000EC4D00087047704770470000F0B589B093
:102A00000368DF69202501210691CE0232462F326C
:102A10003A40196808900446803405939B68202A40
:102A20000495079710D108462840012212071A4042
:102A300080181F4616D00898416F002900D158E130
:102A40000898884709B0F0BD30460F3007421F464E
:102A500008D0CF480840069A1207551C3D40281858
:102A600000D091E003941026084630404242424193
:102A7000079D284630404442444114430898C06EA4
:102A8000401E421E9041204337D001240126B2054A
:102A90003A4050425041EA022246059B00D5024688
:102AA000002A00D1A6E0280606D580200840F205BD
:102AB0001740C01900D0BDE140230A461A405042D9
:102AC00050416A06224600D50246002A00D14AE15A
:102AD000B2070A40504250412A02224600D502461F
:102AE000002A00D1B1E1002900DAB3E1E80100D504
:102AF000B4E1002C00D0FCE0B4E1089C5C34059803
:102B000006628068400600D57BE061882288608884
:102B1000002800D1EDE08A4200D1EAE0EFF3108016
:102B20000790012383F31088092045010898374650
:102B300006683468AC433460079C84F31088EFF374
:102B40001084079483F310880568AE68C84C34403D
:102B5000AC60079C84F31088049C039DEC60002407
:102B60004467C466EFF3108483F3108803681D681C
:102B7000BD431D6084F3108802230367511A89B294
:102B8000FFF7B1FE09B0F0BD009203940798069BD1
:102B900018404242424118020191084044424441D7
:102BA0001443059B05D101201862039C226902434E
:102BB000226101203C460290044060426041079936
:102BC0008A07069A00D50246002A06D1022018621A
:102BD0000398016904220A43026160426041079937
:102BE0004A07069A5ED4002A039C5FD00798000724
:102BF00065D46EE0300518620898FFF7FCFE09B056
:102C0000F0BD2288039800680068436899B20029E3
:102C100000D19CE0914200D399E063800068800677
:102C200035D4EFF31082012181F31088924B2033C9
:102C30000898056837462E681E402E6082F310887B
:102C4000EFF3108281F3108803689D688D439D60C7
:102C500082F31088EFF3108281F3108803689D6877
:102C60004026B5439D6082F31088039B049ADA6086
:102C70000022C266EFF3108281F3108800680168B9
:102C8000B943016082F310881868FEF73FFC022107
:102C90000898016721886288891A89B2FFF723FEA4
:102CA00009B0F0BD0246002A039C9FD1042018629F
:102CB00020690222024322610798000709D5019882
:102CC000049A1040054304D0082018622269024388
:102CD00022610298820601990A4050425041079AA7
:102CE000324208D106980028049A09D020690028A9
:102CF0000DD109B0F0BD069006980028049AF5D1D0
:102D00001E6220691043206120690028F1D00798D5
:102D100010400DD01140009807400F4308D008988C
:102D2000416F002904D0089C204688472368039CF3
:102D3000206928220240986840210840801829D143
:102D40000898FFF759FE0020206109B0F0BD8A42C3
:102D5000CFD100688006CCD5022208980267FFF721
:102D6000C2FD09B0F0BDEFF3108186F3108808981A
:102D7000026814689C43146081F310880021816705
:102D80000399049A8A6000F013FA09B0F0BDC046B6
:102D900020010004EFF31080029E86F310880922C0
:102DA0005201089B1C6825689543256080F31088B4
:102DB000EFF3108086F310881A6894682C4D254034
:102DC000956080F31088D86E01280CD1EFF3108243
:102DD000029880F310880898006803681024A343C1
:102DE000036082F31088039C0498E0600020089A36
:102DF000D066506710688068400621D5EFF31082D6
:102E0000029880F310880898006883688B43836079
:102E100082F310882168002912D01648886308467A
:102E2000FEF7ACFB002800D163E72068816B884780
:102E300009B0F0BD0898816F002900D000E658E77E
:102E40000898FFF7D9FD09B0F0BD0898FFF7D2FD4B
:102E500009B0F0BD0026E80100D44AE63446002C53
:102E600000D046E70898FFF73FFD09B0F0BDC04627
:102E7000FEFFFFEFE5380008DFFEFFFFB0B50028DA
:102E80001ED00446054684356868002804D1002019
:102E90002870204600F02AF8242068602068016825
:102EA0000125A9430160A06A002802D0204600F055
:102EB00047FC204601F024F8002803D02846B0BD86
:102EC0000120B0BD0920C00221684A6882434A60DF
:102ED00088682A22904388600868012202430A60B9
:102EE000204600F097FC05462846B0BDB0B586B038
:102EF00000240594049403940294019400684549C5
:102F0000884201D006B0B0BDE74882680121059132
:102F10004B041A43826082681A400092009A026849
:102F20000A43026000680840009004940394022061
:102F300002900C20019000980520000701A9FEF7DF
:102F40006BFB1C25284621462246FEF799FC2846A5
:102F5000FEF78AFC06B0B0BDF0B581B08C23C35833
:102F6000202B12D1012400290CD0002A0AD00123E1
:102F70001C038568A5420CD1CC070AD00469002C3B
:102F800007D11C46204601B0F0BD0224204601B006
:102F9000F0BD0024C46605686D682D020AD5EFF304
:102FA000108583F310889B06066837681F433760D7
:102FB00085F3108801F066F8204601B0F0BD0000EE
:102FC000B0B500681349884200D0B0BD1248134C18
:102FD000012521462A46FFF7BFFF2078DF21014067
:102FE000512901D1A570B0BD0D2801D00A2808D102
:102FF00060680028E9D020180021017261606570C6
:10300000B0BD61683E29E0D84A1C62606118087250
:10301000B0BDC04600440040540100201000002014
:10302000F0B585B0074688203858202810D10120F7
:1030300000290BD0002A09D001200403BD68A54255
:1030400009D1CD0707D03D69002D04D105B0F0BDF1
:10305000022005B0F0BD019302913D46543539463A
:103060008831002003908860212000910860164676
:10307000FEF7A8FB04906E802E80B868A04202D1B3
:10308000386900285ED0029C019E039A39686888DE
:1030900000285ED0701C454B2ED0002E49D00392E4
:1030A000C869000608D4FEF78DFB0499401AB042A7
:1030B00067D839680868F3E7002C03D02078886265
:1030C000641C07E0039A1088384B18408862921CF1
:1030D000039200246888401E688068880028DFD139
:1030E00037E0108818408862921C00246888401ECF
:1030F0006880688800282CD0C869000608D4C86990
:10310000000605D4C869000602D4C8690006F3D5D4
:10311000002CE6D020788862641CE7E7108818400D
:103120008862921C00246888401E68806888002895
:103130000FD0C869000622D5002CEFD02078886215
:10314000641CF0E70024029A019E39686888002810
:10315000A0D1CA690020520614D4002E0FD0721CD0
:1031600015D1009BCA6952060DD4CA6952060AD409
:10317000CA69520607D4CA695206F3D503E0FEF7BE
:1031800021FB0320009B2021196005B0F0BD0446FF
:10319000FEF718FB0499401AB042F2D8386801686B
:1031A000C0694006F4D52046ECE7C046FF010000A8
:1031B0007047FEE770B584B03C2218480021815466
:1031C0002C22815420228154C164016341634162F5
:1031D00081620124C461817601830422104BE507DA
:1031E0000326B60748C0016041608560C260039154
:1031F000029101910838FDF725FF002801D0FDF765
:10320000ADFD02940194054801A9FDF7BBFD00281E
:1032100001D0FDF7A3FD04B070BDC04658000020EA
:1032200000240140F0B587B000240694059404946E
:1032300003940294524801680127394301600168F0
:10324000394001910199016804221143016000682D
:103250001040019001980520000700907D0229464A
:103260002246FEF7A6FA114829462246FEF7A1FAA1
:10327000059404940397029502AE00983146FEF738
:10328000CBF904940394B802029000983146FEF7FB
:10329000C3F9059404940397029504483146FEF758
:1032A000BBF907B0F0BDC046341002400008005022
:1032B000F0B59BB001A83421FCF721FF2E48002473
:1032C00063210B222D4E066042608460C160046160
:1032D00044618461FEF704FF002801D0FDF73EFD44
:1032E0002548FFF787F9002801D0FDF737FD109436
:1032F00032200F9060200E90119412941394149425
:103300001D480EA92246FEF7C5FF002801D0FDF793
:1033100025FD059404940394029401940D9407945C
:10332000012778030690144D01A92846FEF74AFEAE
:10333000002801D0FDF712FD1A94199418941794DF
:1033400016942868B04201D01BB0F0BD0C4801684B
:103350003943016000683840159019941894022090
:1033600017904020169005201A900007159916A96D
:10337000FEF752F91BB0F0BD0801002000440140E7
:103380003410024010B588B0174800241749184A75
:1033900014C0046041608460C460046106940294B7
:1033A000019400940838FEF79BFE002801D0FDF739
:1033B000D5FC0794059450200490072003900A48F8
:1033C00003A9FFF74FFA002801D0FDF7C7FC0294CC
:1033D0000194009404486946FEF752FE002801D08B
:1033E000FDF7BCFC08B010BDBC000020FFFF0000D2
:1033F000002C014010B5174800210C22164B016229
:1034000041628162E124640218C001604160816010
:10341000C260016141610838FFF730FD002801D02A
:10342000FDF79CFC0B480021FFF7A0FA002801D013
:10343000FDF794FC07480021FFF758FA002801D057
:10344000FDF78CFC0348FFF733FA002801D0FDF7A5
:1034500085FC10BD5401002000440040FEE780B50B
:103460000520000701210902FEF79EF980BD704783
:1034700080B505200007012149020022FEF799F9D5
:1034800080BD80B50520000701225102FEF791F9A9
:1034900080BD704780B5FEF799F980BD0120C00658
:1034A000014908607047C04608ED00E070B518C9D2
:1034B0002E4D2540026890682D4E06402E431E4337
:1034C00096600420C4410839072C0CD80020C0465F
:1034D0007C4424796400A7440303030304152708EC
:1034E00070BD052B34D1012070BDFF231B029468F1
:1034F0009C438B68CD6809691D4309022943214318
:10350000916070BD136A146A0125AC43146294691A
:10351000F025AC430D692D01254395610A24A34391
:1035200089681943116270BD136A146A1025AC438F
:1035300014620F2424039569A5430C6924032C43CA
:103540009461A024A343896809011943116270BDE5
:10355000136A146A0125AC4314629469F025AC43E4
:103560000969090121439161136270BDF8FFFEFFF3
:1035700088FFCEFF80B5FCF770FE0549FCF7D7FD4C
:103580000449FCF72DFE0449FCF7D1FD80BDC0467F
:1035900000304BC557F8293DCDCCA841B0B5674C9C
:1035A0002046FDF727FF64212046FDF7AFFE0028E7
:1035B00001D0002403E06148FDF740FD04465F4D63
:1035C0002846FDF747FF0120FEF716F82846FDF7CD
:1035D00011FF64212846FDF799FE002803D15748C2
:1035E000FDF72CFD0419554D2846FDF733FF01204A
:1035F000FEF702F82846FDF7FDFE64212846FDF798
:1036000085FE002803D14D48FDF718FD04194B4DE8
:103610002846FDF71FFF0120FDF7EEFF2846FDF7C6
:10362000E9FE64212846FDF771FE002803D14348D6
:10363000FDF704FD0419414D2846FDF70BFF01205D
:10364000FDF7DAFF2846FDF7D5FE64212846FDF791
:103650005DFE002803D13948FDF7F0FC0419374D11
:103660002846FDF7F7FE0120FDF7C6FF2846FDF7C7
:10367000C1FE64212846FDF749FE002803D12F48EA
:10368000FDF7DCFC04192D4D2846FDF7E3FE012073
:10369000FDF7B2FF2846FDF7ADFE64212846FDF791
:1036A00035FE002803D12548FDF7C8FC0419234D39
:1036B0002846FDF7CFFE0120FDF79EFF2846FDF7C7
:1036C00099FE64212846FDF721FE002803D11B48FE
:1036D000FDF7B4FC0419194D2846FDF7BBFE012087
:1036E000FDF78AFF2846FDF785FE64212846FDF791
:1036F0000DFE002803D11148FDF7A0FC04190F4D61
:103700002846FDF7A7FE0120FDF776FF2846FDF7C6
:1037100071FE64212846FDF7F9FD002803D1074812
:10372000FDF78CFC04190548FDF794FE0120FDF718
:1037300063FF0A212046FCF7ABFDB0BD5800002016
:10374000B0B5816A0A070CD4CA0714D18A071CD401
:103750004A0724D4CA062CD48A0634D44A063CD458
:103760004CE00122D20303685C689443826B2243DD
:103770005A60CA07EAD00122520403685C68944385
:10378000C26A22435A608A07E2D501221204036802
:103790005C689443026B22435A604A07DAD50122DF
:1037A000920403685C689443426B22435A60CA06E1
:1037B000D2D50122120303689C689443C26B224352
:1037C0009A608A06CAD50122520303689C68944312
:1037D000026C22439A604A0610D501221305026842
:1037E00054689C43456C2C4354609D4206D103238E
:1037F0005B0554689C43836C23435360090607D5DB
:103800000121C904026853688B43C06C184350609F
:10381000B0BD0000F0B583B00446064684360025EE
:10382000F560FDF7CFFF034620680168090721D541
:1038300002952B48009001256905002220461F466D
:1038400000F0BEFC002812D0EFF3108085F3108842
:1038500021680A6880239A430A6080F31088032055
:1038600020228821029D6250357003B0F0BD20688F
:103870003B46029D0068400726D519480090012765
:10388000B9050022204600F09BFC00281CD0EFF375
:10389000108087F3108809214901226813688B433F
:1038A000136080F31088EFF3108087F3108821688D
:1038B0008A68BA438A6080F31088032020228C2112
:1038C0006250357003B0F0BD20207060B060E566D6
:1038D00070212A4628466250357003B0F0BDC046BC
:1038E000FFFFFF0180B5806A5E2100224252FFF790
:1038F00083F880BDF0B581B08C214158026822293F
:1039000010D101465C318B88526A1A40836D1A804F
:103910004A88521E4A809A1C82654A88002A07D02B
:1039200001B0F0BD906908210143916101B0F0BD83
:1039300003468C33EFF31084012282F310880925AB
:103940006D0106683768AF43376084F31088EFF382
:10395000108482F310880568AE689643AE6084F3E5
:10396000108820241C600023036743670468646890
:1039700024020AD5EFF3108482F3108895060668B6
:103980003768AF43376084F31088C46E012C15D1BB
:10399000C366EFF3108382F3108804682568102251
:1039A0009543256083F310880368DC69E40600D53D
:1039B0001A620988FEF797FF01B0F0BDFFF700FB20
:1039C00001B0F0BDF0B583B004460268D569116856
:1039D00090688C23E358222B64D126465C36012262
:1039E0000192B289002A00D10AE127468C37B288B9
:1039F0000292019A1040C9055AD4002822D103E04E
:103A00007088002800D1B6E0A80600D4F8E020684D
:103A1000416A029A1140A26D11807188491E71801D
:103A2000911CA165C5696807EAD078680028E7D0CD
:103A30002046FEF7E1FF00207860E1E7708800286B
:103A400000D198E0A80600D4DAE02068416A029A22
:103A50001140A26D11807188491E7180911CA16571
:103A6000C5696907EAD0AA0705D400290BD478688C
:103A7000002811D1E2E7022202627A68042313438C
:103A80007B600029F3D5042101627868022101439B
:103A9000796078680028D1D02046FEF7ADFF00207D
:103AA0007860CBE7906908210143916103B0F0BDD4
:103AB000002827D102E0708800285CD0A80600D436
:103AC0009EE02068416A029A1140A26D11807188BF
:103AD000491E7180911CA165C5696907EBD0E90792
:103AE00004D00199016278680843786078680028FA
:103AF000E1D02046FEF780FF00207860DBE7708889
:103B0000002838D0A80600D47AE02068416A029ADA
:103B10001140A26D11807188491E7180911CA165B0
:103B2000C5696907EBD0EA0707D1AA070CD40029B9
:103B300012D47868002818D1E1E7019B03627A6803
:103B40001A437A60AA07F2D5022202627A68042335
:103B500013437B600029ECD50421016278680221BF
:103B60000143796078680028C9D02046FEF744FFF9
:103B700000207860C3E7EFF31080019D85F3108883
:103B80002902226813688B43136080F31088EFF3D7
:103B9000108085F3108821688A68D84B13408B60A9
:103BA00080F310882020386000202067606721683B
:103BB000496809020BD5EFF31081019A82F310884E
:103BC000920623681D6895431D6081F31088E16E9D
:103BD000012937D1E066EFF31081019880F3108856
:103BE0002268136810208343136081F310882168D2
:103BF000CA69D20600D5086231882046FEF773FEF6
:103C00007088002824D0B189884221D2EFF3108037
:103C1000019D85F31088B949491C226893680B40BF
:103C2000936080F310880B486067EFF3108085F392
:103C3000108821680A68202313430B6080F31088E2
:103C400003B0F0BD2046FFF7BBF970880028DAD139
:103C500003B0F0BDF5380008F0B581B08C214158B3
:103C60000268222911D101465C318B88526A1A40C0
:103C7000836D1A704A88521E4A80826D521C82657A
:103C80004A88002A07D001B0F0BD9069082101439D
:103C9000916101B0F0BD03468C33EFF31084012233
:103CA00082F3108809256D0106683768AF433760D5
:103CB00084F31088EFF3108482F310880568AE68EF
:103CC0009643AE6084F3108820241C6000230367B1
:103CD00043670468646824020AD5EFF3108482F312
:103CE0001088950606683768AF43376084F31088FC
:103CF000C46E012C15D1C366EFF3108382F31088D4
:103D00000468256810229543256083F310880368B2
:103D1000DC69E40600D51A620988FEF7E4FD01B00B
:103D2000F0BDFFF74DF901B0F0BD0000F0B585B072
:103D300004460068C5690168019187688C21615853
:103D4000222964D122465C329089002800D1A9E062
:103D500026468C369088029001200740049000028D
:103D6000019901400191039202E05088002854D04B
:103D7000A80600D496E02068406A02990840A16D28
:103D800008705088401E5080A06D401CA0652068BF
:103D9000C5696907E9D0019B5A425A41EB07049B68
:103DA00000D01346002B04D1012202627368134332
:103DB00073607A427A41AB07049B00D51346002B0F
:103DC00005D10222026272680423134373607A42AF
:103DD0007A410029049906D4002907D07068002888
:103DE000039A0DD1C1E711460029F7D104210162E0
:103DF000706802210143716070680028039AB4D092
:103E00002046FEF7F9FD039A00207060ADE7816956
:103E100008220A43826105B0F0BDEFF31081012052
:103E200080F31088020223681D6895431D6081F3AA
:103E30001088EFF3108180F31088226893682F4D6B
:103E40001D40956081F31088202131600021216799
:103E500061672268526812020AD5EFF3108280F37C
:103E60001088830625682E689E432E6082F3108892
:103E7000E26E012A38D1E166EFF3108180F31088F9
:103E80002268136810208343136081F3108821682F
:103E9000CA69D20600D50862039D29882046FEF72C
:103EA00022FD2A465088002825D09189884222D2B6
:103EB000EFF31080012181F31088104A521C23680F
:103EC0009D6815409D6080F31088BB486067EFF3E4
:103ED000108081F3108821680A68202313430B6047
:103EE00080F3108805B0F0BD2046FFF769F8039A0B
:103EF00050880028D9D105B0F0BDC046FEFFFFEFC5
:103F0000F0B581B0044600680168514A0A40A168D2
:103F100023690B4365691D431543E1690D43056042
:103F20000322120343689343E2681A434260A26982
:103F3000236A13438268474D15401D438560C26A5A
:103F40000F239A43676A3A43C262434A904209D0B8
:103F5000424A904208D14248406D8007000F41A27A
:103F6000125802E0002200E01022264668360125A1
:103F7000E803814210D1082A61D8C0467A441279F8
:103F800052009744045C195C2B5C5C5C3000FDF7CC
:103F900023FE002826D151E0082A50D87A4412790D
:103FA00052009744044C124C354C4C4C3A00FDF7EF
:103FB00013FE002830D141E0294800680006400F78
:103FC000411C2C48FCF764F90DE025480068000608
:103FD000400F411C2748FCF75BF91EE0FDF744FE4B
:103FE00000282BD0676A7900234A515AFCF750F910
:103FF000400061684A081018FCF74AF90246103A76
:104000001E498A421BD201400007400F084313E0BB
:10401000FDF72AFE002811D0676A7900164A515A26
:10402000FCF736F961684A081018FCF731F90146C7
:104030001039124A914202D22168C8600025104806
:10404000306000206067A067284601B0F0BDC04620
:10405000F369FFCFFFF4FF11004400400038014036
:1040600000100240000000000400000002000000F8
:1040700008000000006CDC02D44D0008F0FF0000D6
:1040800001000100F0B55C23C25281650021416747
:1040900003465C335A80856804468C34002D12D068
:1040A00001263707BD4208D03603B54214D1056951
:1040B000002D0ED13D4D9D800FE00569002D05D0EE
:1040C0003F259D8009E00569002D02D07F259D8058
:1040D00003E0FF259D8000E099806160222121603E
:1040E000EFF31084012181F310880568AE680E4358
:1040F000AE6084F310880C034D07466EAE4202D1C9
:104100009B899A421BD202698368A34204D1002A88
:104110001ED0294A426703E0274B4367002A19D083
:10412000EFF3108281F310880902006803680B43E3
:1041300020211943016082F310880020F0BD02693C
:104140008368A34213D1002A21D0194A426712E0A2
:104150001A4A4267EFF3108281F310880068016801
:1041600020230B43036082F310880020F0BD104B26
:104170004367002A0DD0EFF3108281F310880B0201
:10418000046825681D43256082F3108801E0094A10
:104190004267EFF3108281F3108809070068836893
:1041A0000B43836082F310880020F0BDFF01000004
:1041B0002D3D0008C5390008593C0008F5380008B5
:1041C000F0B585B01F4615460E460368D9693140E3
:1041D000891B4A424A410021954222D10A9C002C67
:1041E00022D00391611C24D1D9693140891B4A42F4
:1041F0004A41954231D1D9693140891B4A424A41ED
:1042000095422AD1D9693140891B4A424A41954297
:1042100023D1D9693140891B4A424A419542E3D0B2
:104220001BE0084605B0F0BDFDF7CCFA032005B051
:10423000F0BD402E049001D0802E14D1FDF7C2FABB
:10424000C01BA0420CD8049800680168C0693040C7
:10425000801B414241418D42F0D0039805B0F0BD32
:10426000032005B0F0BD8430019001200090C00211
:10427000029006E0C8693040801B414241418D42B6
:10428000EBD1FDF79FFAC11B0320A1423FD804994F
:1042900009680A685207EDD5CA69120739D4CA6994
:1042A000029B1A42E6D0029A0A62EFF310820121C1
:1042B00081F3108809235B01049C246825689D43D1
:1042C000256082F31088EFF3108281F31088049B3D
:1042D0001B689C682A4D25409D60049B82F31088D2
:1042E000DA6E012A0BD1EFF3108281F3108819687E
:1042F0000B681024A3430B60049B82F310882021D9
:10430000019CA1600022DA665A672270E16005B064
:10431000F0BD08250D62EFF31081009880F310883E
:1043200009225201049B1B681C6894431C6081F3A2
:104330001088EFF3108180F31088049A1268936854
:104340000F4C1C40049B946081F31088D96E0129A6
:104350000CD1EFF31081012282F310881A681368E0
:104360001024A3431360049B81F310882021019A39
:1043700091600021D96659671170D56005B0F0BD14
:10438000FEFFFFEF80B50948FEF738FB80BDC04651
:1043900080B582B001900020C343044801A90122E6
:1043A000FEF73EFE019802B080BDC04654010020D9
:1043B0008EB0FDF715FA00240D940C940B940A941A
:1043C0000994089407940694059404940394029421
:1043D0000194194801680725A943016040200B900A
:1043E000012001030A91000209900220069006A80C
:1043F000FDF772FC002801D072B6FEE70294019529
:1044000003940494059401A82146FDF7F7FA0028C7
:1044100001D072B6FEE7FEF705FFFEF7CBFEFEF712
:10442000E9FFFEF7AFFFFEF743FFFCF7F9FAFCF7F1
:104430009BFCFCF72FFBFCE7002002400FB410B5FB
:1044400003A9044B044A029800F0E8F810BC08BC29
:1044500004B0184791430008000000202021020CFE
:1044600001D010211046020A01D010460839020975
:1044700001D01046091F820801D01046891E42084B
:1044800001D0881E7047081A704702E008C8121F42
:1044900008C1002AFAD170477047002001E001C12D
:1044A000121F002AFBD17047F0B51FB486B00998DF
:1044B000089A030D0021024314D05148514A18189C
:1044C000504305141198012810981AD0281A401C3E
:1044D00000264D4F4D49009601910490002812DAB4
:1044E000444211E01198012449A3012801D11098F8
:1044F000C1430698119A84600360C26041600BB0AA
:10450000F0BD4042E4E70446210500203F4A001C7C
:1045100051410391029012E0E00707D032463B463A
:1045200001990098FBF7F6FF0191009032463B4657
:1045300010461946FBF7EEFF06460F466410002CA6
:10454000EAD10498039B0028029A0999089806DA90
:10455000FBF7E0FF019B009AFBF7DCFF05E0FCF7AF
:1045600041F8019B009AFCF73DF804460E460022F4
:10457000284BFCF7CFF803D80020C043014607E0E2
:104580000022254B20463146FBF712FFFCF7A2F82C
:10459000102409E0002C0ADB0A220023FBF797FE17
:1045A000079B30321A55641E02460A43F2D111228B
:1045B000641C079B121B1C19119B012B03D00123A8
:1045C00008430ED10AE0084304D0112010900020C7
:1045D000119077E71098151A6D1E0BE01098824223
:1045E00002DD00236D1C03E0824201DA00236D1E10
:1045F000002BEED0069811998260C16030C07EE732
:1046000001FCFFFF104D0000000014400000F03FCF
:10461000300000000000F0430000E03FFFB597B01D
:104620000646002518E2252877D100242746FD49B3
:10463000049400E00443761C32780120203A904034
:104640000842F7D130782A280ED00222307801466D
:104650003039092916D804990A23594330394018AA
:104660001443761C0490F1E7189802C8049118903E
:10467000002904DA01204003044348420490022048
:104680000443761C30782E2814D10420044370781B
:10469000761C2A2809D11898761C80C8189009E041
:1046A0000A214F43303FC719761C30780146303914
:1046B0000929F5D930786C2810D006DC4C281AD09E
:1046C00068280ED06A2817D104E0742813D07A28FD
:1046D00012D110E00120400504430CE0012109053E
:1046E00001E0032109050C437178814203D10120C7
:1046F00000052418761C761C3078119066280BD0A3
:1047000013DC58287DD009DC00287BD04528F6D062
:104710004628F4D047281AD1A5E118E0632835D0FF
:10472000642870D0652812D19DE170286CD008DC17
:104730006728F1D069287BD06E280DD06F2806D16C
:10474000BAE073282ED0752871D0782859D01A9ADB
:10475000199990476D1C7EE16002400F022809D034
:1047600003280DD00428189801680DD00D60001D95
:10477000189070E11898EA1701680D604A60F6E732
:10478000189801680D80F2E70D70F0E718986A46F6
:1047900001781172001D18900020507202A800903C
:1047A000012005E0189802C8189000200091C0432D
:1047B00061070DD5002101E00199491C0191B94221
:1047C00012DA8142F8DB009A515C0029F4D10BE047
:1047D000002101E00199491C01918142FADB019A13
:1047E0000099895C0029F5D1019904981A9B471A10
:1047F00021463846199A00F097FA01994019451850
:104800000BE04FE02CE113E04EE0009800990078B7
:10481000491C00911A9A199990470198401E0190DD
:10482000401CF2D1214638461A9B199A10E137E014
:104830000A200021009001916002410F022907D057
:10484000189A01CA1892C2179446032908D00AE0A0
:104850001898C01DC108C90005C91891944607E001
:1048600000B2C2179446042902D140B2C1178C4647
:1048700000226146944506DA0A46002140429141F1
:104880008C462D2102E0210504D52B216A461173A7
:10489000012103E0E10701D02021F7E7029155E073
:1048A0000A200AE0102008E01020009000210420D7
:1048B00004430191082703E00820002101910090A2
:1048C0006002410F022907D0189A01CA18920022EB
:1048D0009446032908D008E01898C01DC108C900F3
:1048E00005C91891944603E080B2042900D1C0B2F2
:1048F00000210291210729D51199702906D0009A2B
:104900001021019B4A401A4305D00EE040216A461F
:104910001173012108E06146014306D030216A4647
:1049200011731199517302210291009A0821019B80
:104930004A401A430AD16146014301D1610705D5B6
:1049400030216A46117301217F1E02911199582965
:1049500004D035A10E910DA90D910DE037A1F9E715
:104960006146019B009AFBF7B2FC0E9B8C469B5C58
:104970000D9A521E0D92137061460143F0D10D98AD
:1049800005A9081A20300190600703D50120000412
:10499000844300E001270198874201DD381A00E0D6
:1049A0000020019900904118029809180498401AB3
:1049B0000490E00306D421461A9B199A049800F04B
:1049C000B3F94519002706E003A81A9AC05D1999A2
:1049D00090476D1C7F1C02988742F5DBE0030CD5E5
:1049E00021461A9B199A049800F09EF9451904E093
:1049F0001A9A3020199990476D1C0099481E009012
:104A00000029F5DC08E00D980D990078491C0D91FE
:104A10001A9A199990476D1C0199481E0190002916
:104A2000F1DC63E1092801003031323334353637A7
:104A300038396162636465660000000030313233EA
:104A4000343536373839414243444546000000008A
:104A500000F05AF94519761C3078002800D0E2E5BC
:104A600028461BB0F0BD600700D406271898C01D6B
:104A7000C108C90048680A680831C30FDB071891EC
:104A8000190001D09CA108E0210501D59BA104E0FB
:104A9000E10701D09AA100E09AA1430011985B08B8
:104AA000109165280CD006DC452809D046281DD079
:104AB000472841D141E0662818D067283CD13CE026
:104AC0000021112F01DB112000E0781C01910090E2
:104AD00008A911A8FFF7E8FC139905910021119A84
:104AE00015927F1C12980197009150E00120C00799
:104AF00003900120019008A9009711A8FFF7D4FCAA
:104B0000139A149905920022119B00921298159302
:104B1000059A0192002901D0104602E0791C401844
:104B20000190381A01D5019804E04042401E0090DF
:104B3000781C0190C01B029043E0012F00DA01278E
:104B40000021112F01DD112000E038460191009075
:104B500008A911A8FFF7A8FC13990591119A002143
:104B6000129815920091019721070CD40599B9422A
:104B700001DB019900E00191012904DD159A491E2C
:104B8000515C302906D0B84201DA011D05DA012155
:104B9000029115E00199491EEDE7002805DC009916
:104BA000411800910199091A03E0019A411C9142B0
:104BB00000DD01910099401A401C02900120C007BD
:104BC0000390200706D402990198814202DB00205D
:104BD000C043029000206946C87707AF01210398BF
:104BE0000337C907884224D0022011902B2012904D
:104BF000039800280CDA404203902D20129007E021
:104C00000A210398FBF744FB30317F1E0390397073
:104C10001199481E11900029F2DC03980028EFD169
:104C2000791E129808703078202108404530BF1E48
:104C3000387006A8C01BC01D03901098007800288B
:104C400000D00120019941180298C0170918039853
:104C500009180498401A401E0490E00306D4214627
:104C60001A9B199A049800F05FF84519109800787B
:104C7000002803D01A9A199990476D1CE00324D597
:104C800021461A9B199A049800F04EF845191CE029
:104C90000098002807DB00990598884203DD1598E5
:104CA000405C199901E0199930201A9A90470098B0
:104CB0006D1C401C00900298401E0290002804D1F8
:104CC0001A9A2E20199990476D1C0199481E01903F
:104CD0000029DDDC05E038781A9A7F1C1999904785
:104CE0006D1C0399481E03900029F4DC21461A9B91
:104CF000199A0498ACE600002D0000002B0000007B
:104D00002000000000000000F8B5044600251E4603
:104D10001746880404D405E039462020B0476D1CAE
:104D2000641EF9D52846F8BDFFB50446002581B0BC
:104D30001E46C80301D5302700E02027880404D58B
:104D400005E038460399B0476D1C641EF9D5284626
:104D500005B0F0BD10B5044601E0FFF719FB20785F
:104D6000641C03490028F8D10A20FFF711FB10BD8D
:104D70000000002000000000000000000000000013
:104D80000000000000000000000000000000000023
:104D9000000000000100000002000000030000000D
:104DA00004000000060000000700000008000000EA
:104DB00009000000000000000000000000000000EA
:104DC00000000000010000000200000003000000DD
:104DD00004000000010002000400060008000A00B0
:104DE0000C001000200040008000000101010103C0
:104DF000070100000804020408010101496E69630B
:104E000069616E646F206D65646963616F20706FA6
:104E100072202564206D732E2E2E0D0A0054656DB0
:104E200070657261747572613A20252E3266204376
:104E30000D0A0045737461646F20646F204F7363C3
:104E4000696C61646F723A2025730D0A0056616CBB
:104E50006F72204144432064612054656D70657217
:104E600061747572613A2025750D0A00467265718C
:104E700075656E63696120646F204F7363696C614F
:104E8000646F723A20257520487A0D0A0074656DAA
:104E9000702020202020202020202020202D3E2097
:104EA0004C6520612074656D706572617475726106
:104EB000202876616C6F7220414443290D006F7386
:104EC00063206672656320202020202020202D3E54
:104ED000204D6564652061206672657175656E633D
:104EE000696120286C65697475726120756E6963EB
:104EF00061290D002020202020202020202020209B
:104F000020202020202020285072657373696F6E46
:104F1000652061207465636C6120277127207061B2
:104F200072612073616972290D000D0A0A2D2D2D01
:104F30002046696D20646F204D6F6E69746F7261D9
:104F40006D656E746F202D2D2D0D002D2D2D2043A0
:104F50006F6D616E646F7320446973706F6E6976F4
:104F6000656973202D2D2D0D002D2D2D2D2D2D2D11
:104F70002D2D2D2D2D2D2D2D2D2D2D2D2D2D2D2D61
:104F80002D2D2D2D2D0D0047657261646F722064EB
:104F9000652074657374652064652031306B487AD0
:104FA000204C494741444F206E6F2070696E6F203E
:104FB0005041362E0D0052656C65204C49474144E6
:104FC0004F2E0D0052656C65204445534C494741B6
:104FD000444F2E0D0047657261646F722064652036
:104FE0007465737465204445534C494741444F2EC2
:104FF0000D00436F6E7461646F7220646520667289
:10500000657175656E636961207265696E69636952
:1050100061646F2E0D0068656C70202020202020B8
:105020002020202020202D3E204D6F73747261209F
:105030006573746120616A7564610D006F7363202C
:105040006D6F6E69746F7220202020202D3E2049E4
:105050006E69636961206D65646963616F20636F68
:105060006E74696E75612064652066726571756520
:105070006E6369610D0072656C6179206F6E20202E
:105080002020202020202D3E204C696761206F20A9
:1050900072656C650D0072656C6179206F666620C3
:1050A0002020202020202D3E204465736C696761FC
:1050B000206F2072656C650D0074657374207077C5
:1050C0006D206F6666202020202D3E204465736C85
:1050D000696761206F2067657261646F7220646523
:1050E0002074657374650D006F7363202020202089
:1050F00020202020202020202D3E204C65206F20C5
:1051000065737461646F20646F206F7363696C6191
:10511000646F720D0074656D706320202020202064
:1051200020202020202D3E204C6520612074656DBC
:10513000706572617475726120656D2043656C7372
:105140006975730D00746573742070776D206F6ED0
:1051500020202020202D3E204C696761206F206791
:10516000657261646F722064652074657374652074
:1051700064652031306B487A0D003E20006F736308
:1051800000000000A85100080000002010000000EE
:105190008A440008B851000810000020E005000013
:1051A0009A44000800000000000000000100000018
:0851B00004000000001BB70021
:04000005080000C12E
:00000001FF
