:020000040800F2
:10000000D0050020D5000008991A0008E318000860
:1000100000000000000000000000000000000000E0
:100020000000000000000000000000009D1A000811
:1000300000000000000000009B1A00089F1A000842
:10004000E7000008E7000008E7000008E7000008F4
:10005000E7000008E7000008E7000008E7000008E4
:10006000E7000008E7000008E7000008E7000008D4
:10007000E7000008E7000008E7000008E7000008C4
:10008000E70000080000000000000000E700000892
:1000900000000000E7000008E7000008E700000893
:1000A000E7000008E7000008E7000008C52700088F
:1000B000D127000800000000000000000000000040
:1000C0000348854600F064F800480047FD27000813
:1000D000D00500200448804704480047FEE7FEE7BB
:1000E000FEE7FEE7FEE7FEE7A91A0008C1000008E8
:1000F00070B50446002903D000202022012310E01F
:10010000002801D00020C043C046C0460DE025466F
:10011000D5408D4205D30D469540641B1D46954044
:1001200040191546521E002DF1DC214670BDF0B578
:100130001FB40646002082B005464024019100907D
:100140001BE0019922460F46304600F049F8049A18
:10015000059B801A994110D310461946224600F09B
:100160002FF8361A8F410197224601200021009F67
:1001700000F026F838184D4100902046641E0028F3
:10018000DFDC019B00982946324607B0F0BD000035
:100190001CB5094800900948019005460126009CBD
:1001A00005E0E36807CC33430C3C98471034AC427D
:1001B000F7D3FFF789FF0000802E0008A02E00086B
:1001C00010B5202A04DB0146203A9140002010BDE2
:1001D000914020239C1A0346E3401943904010BDF0
:1001E00010B5202A04DB0846203AD040002110BD7B
:1001F0000B46D340D0402024A21A91400843194610
:1002000010BD000080B507A002F0A0FD0FA002F015
:100210009DFD184802F0B2FB17481849012201F071
:1002200035FA80BD2D2D2D2D2D20434C49206465A0
:100230002056616C69646163616F2064652050437E
:1002400042202D2D2D2D2D0D0000000044696769E1
:100250007465202768656C70272070617261207654
:100260006572206F7320636F6D616E646F732E0D06
:1002700000000000702E000838010020100000204F
:1002800072B6FEE707480068406A704780B50548C7
:1002900000F030FE80BDC046024800680021416287
:1002A0007047C0465800002070B500282CD0014689
:1002B00024314A78022A29D1046822680E239A43FD
:1002C0002260426C1568314B1D4015602568012283
:1002D00095432560046C1C2525401446AC402C4DEC
:1002E0002E6826432E60846CC56C6560046D002CFE
:1002F00005D025681D402560436D806D58604A70AB
:10030000002000220A7070BD012070BD0422C2636B
:10031000012000220A7070BD70B5242101244454CC
:10032000014624314A78022A2BD103681A680E2428
:10033000A2431A601C68012294431C60446C256827
:10034000124B1D402560046C1C2525401446AC4012
:100350000F4D2E6826432E60846CC56C6560046D5D
:10036000002C05D025681D402560436D846D5C60C0
:1003700000240C704A70816B002900D08847204609
:1003800070BD0421C163204670BDC046FFFEFFFF63
:1003900004000240B0B5044600F0DCF80546601CDD
:1003A00002D089480078241800F0D4F8401BA042FD
:1003B000FAD3B0BDF0B58AB0069009910B68002B56
:1003C00000D1B4E05B480699814201D0062000E0EC
:1003D00005200B221207069989180A22D1410091A3
:1003E000042900D3009006982030019000252E4665
:1003F000079529460FE01A4362600899491C09983D
:1004000003681846C8400835B61C079A121D0792A3
:10041000002800D18BE00124204608918840034049
:100420000393EAD0049509994A68102111431229CF
:1004300015D11C21079A114005960F2632468A4095
:10044000089BDB089F00019BDD599543099A1269BF
:100450003240059E8A402A43DA5109994A680323AB
:1004600011461940B1400293B3403746069E3568A5
:100470009D430D4335603E46D9430591122A049DA4
:1004800015D894402E490C420FD0069CA168059BBC
:100490001940099BDB68B3400B43A3601109089B1B
:1004A0009940636883430B436360032AA5D0069B8E
:1004B000D8680599084009998968B1400143D96015
:1004C000D0009AD5182028400F218140089A029B1D
:1004D0009A43194CA218136E8B430099814019431B
:1004E00011661648026809984068C10302D5039B4B
:1004F0001A4301E0039B9A4310490A604A6881034A
:1005000001D51A4300E09A430C494A602268C102AF
:1005100005D51A4322606268800206D56BE79A43CC
:1005200022606268800200D565E79A4364E70AB0FA
:10053000F0BDC04600140050001802408018024070
:1005400006000600002A02D0182281507047282297
:1005500081507047054800687047C0461A480078C7
:1005600002490A68101808607047C046CC01002094
:1005700080B5032000F008F8002801D0012080BDDC
:1005800000F024F8002080BD70B50F4E31780124B2
:10059000002916D005467D20C000FFF7A9FD0146C1
:1005A000F0480068FFF7A4FD00F0BAFB032D08D85F
:1005B000002806D10024E0432946224600F028F80E
:1005C0007560204670BDC0460400002082B0094816
:1005D0004168012211434160416811400191019934
:1005E000110702680A430260006808400090009802
:1005F00002B070473C100240002805D41F2108407B
:1006000001218140014801607047C04600E100E0DF
:10061000002805D40322034693430A4A9A1803E0AC
:100620000C220240064BD2188007C00E8901C9B2C5
:100630008140FF238340106898430843106070474F
:1006400014ED00E000E400E0F0B585B00446007869
:1006500040064C4E01D4002035E00120010737460A
:10066000203F3A6803910A40029207D13968039A01
:1006700011433960396811400491049903210191B3
:100680000A023168114010D0E26991420DD0316800
:1006900000043268024332603268824332600846A6
:1006A000394A10403060C8075AD13068364908408E
:1006B000E1690143316000200299002903D13968C2
:1006C000039A914339602168CA070BD18A0713D472
:1006D0008A061CD40A0725D44A072DD4090636D425
:1006E00005B0F0BD3246083A13680325AB43A56850
:1006F0001D4315608A07EBD5032212033346083BDE
:100700001D689543E2682A431A608A06E2D50322EF
:1007100092073346083B1D689543A2692A431A6035
:100720000A07D9D501221203331F1D689543626958
:100730002A431A604A07D1D5032292033346083B65
:100740001D68954322692A431A600906C8D55C3E94
:100750003168E022914362680A43326005B0F0BD1F
:10076000FFF7F8FE0546306880079ED4FFF7F2FEDB
:10077000401B7B498842F6D90198029900299ED0F6
:10078000A1E7C0465C100240FFFCFFFFF0B583B05C
:100790000D460146012000296BD0029101906F485F
:1007A000006807273840854215D96C490868B84366
:1007B000284308606A4CFFF7CDFE0646674800688C
:1007C0003840A84207D0FFF7C5FE801BA042F5D9EC
:1007D000032003B0F0BD029B186881079F4C10D521
:1007E000410707D57B21090222688A430B210902B0
:1007F000511821600F21090222688A43D9681143E8
:100800002160C0071AD1554800683840854232D26D
:1008100052490868B84328430860514CFFF79AFED4
:1008200006464E4800683840A84224D0FFF792FEA2
:10083000801BA042F5D9032003B0F0BD2246083A40
:1008400010681C2188439968014311605968032985
:1008500043D8880001A31B5801989F466D080008E3
:10086000D3080008C3080008CB0800081268520526
:1008700037D403B0F0BD029A10784007774C05D505
:1008800038032168814310690843206020460838F6
:10089000016822689206520F06D022683820024072
:1008A000082A07D16E4842E000688004420F6D4874
:1008B000D0403CE022680240202A2AD10120C00317
:1008C00035E012681202D4D50BE0A26D9207D0D5A4
:1008D00007E012689203CCD503E0606D80070198B1
:1008E000C7D52068B84308432060FFF733FE0646AB
:1008F00020683821014002984068C000814282D0BF
:10090000FFF728FE801B16498842F1D9032003B067
:10091000F0BD22680240182A02D17D20000206E0C4
:1009200022680240102A01D0002000E04D48C9068C
:10093000490F491CFFF7DCFB216889093C220A406A
:100940002B4989581F220A40D040F2490860F248DA
:100950000068FFF719FE03B0F0BDC046002002405A
:10096000881300000C00002010B53C4C20460838CD
:10097000016822689206520F06D022683820024091
:10098000082A07D136481AE000688004420FE04880
:10099000D04014E022680240202A02D10120C00386
:1009A0000DE022680240182A02D17D20000206E0F4
:1009B00022680240102A01D0002000E0D448C90675
:1009C000490F491CFFF794FB216889093C220A4022
:1009D000074989581F221140C840CE490860216844
:1009E000890A1C230B400349C9581140C84010BD57
:1009F0006C2D0008AC2D000880B518480246083A56
:100A0000116803689B065B0F06D003683822134009
:100A1000082B07D112481AE010688004420FBC4826
:100A2000D04014E003681340202B02D10120C00302
:100A30000DE003681340182B02D17D20000206E070
:100A400000681040102801D0002000E0B048C9061E
:100A5000490F491CFFF74CFB80BDC04608100240FF
:100A600000127A00006CDC02F0B581B0044601206F
:100A7000002C00D148E100902078C007A34E08D098
:100A8000B068382202406168082A4BD1002900D1A1
:100A900090E02078800721D42078000709D5B0683D
:100AA00038220240A169182A00D086E0002900D12E
:100AB00080E0207840070AD5B06838220240A1685B
:100AC000202A00D08DE00029009800D11CE1207878
:100AD0000025C00637D4284601B0F0BDE268B068F2
:100AE0008006400F47D0306801218F02002A00D1D4
:100AF00084E00722D2029043226902433260080256
:100B0000316801433160FFF725FD05463068384202
:100B100000D09BE0FFF71EFD401B0228F6D9032002
:100B200001B0F0BD306801235F041A04914207D080
:100B300005252D04A94272D199040843306030681C
:100B40001043306073E030680121CF05E269890508
:100B5000002A00D183E008433060FFF7FBFC044625
:100B600030683842B7D1FFF7F5FC001B0228F7D9EF
:100B7000032001B0F0BD002A1CD07F200002716864
:100B8000814360690002084370600720C002316839
:100B9000814320690843306030688004400F5C491D
:100BA000C1405C4801605C480068FFF7EDFC00282C
:100BB00000D171E7009801B0F0BD306E00295ED021
:100BC000012108433066FFF7C5FC0546306E8007FB
:100BD00000D56EE7FFF7BEFC411B03200229F5D9C3
:100BE00092E0F06D012905D0052959D1042108436F
:100BF000F065F06D01210143F1655AE00902884377
:100C00003060FFF7A7FC05463068384200D143E763
:100C1000FFF7A0FC411B03200229F5D974E09043A3
:100C200030609804326882433260002950D0FFF768
:100C300091FC05463068384200D02AE7FFF78AFC6D
:100C4000401B6428F6D9032001B0F0BD7F200002CC
:100C50007168814360690002084370601CE7884343
:100C60003060FFF777FC04463068384200D132E745
:100C7000FFF770FC011B03200329F5D344E0012199
:100C800088433066FFF766FC0546306E800700D467
:100C90000FE7FFF75FFC411B03200229F5D933E082
:100CA00001229043F065F06D04229043F065002925
:100CB0001CD01A4FFFF74EFC0546F06D800700D59B
:100CC00005E7FFF747FC411B0320B942F5D91BE0BC
:100CD000FFF740FC05463068384200D1D9E6FFF7FF
:100CE00039FC411B03206429F5D90DE00B4FFFF7B8
:100CF00031FC0546F06D800700D4E8E6FFF72AFCDA
:100D0000411B0320B942F5D901B0F0BD00100240EB
:100D1000006CDC020C00002008000020881300009A
:100D2000401E010E01D0012070470749074A50605C
:100D3000074803680B400321890759180160002008
:100D40009060072111607047FFFFFF0010E000E096
:100D500020ED00E070B53C22825C012A01D1022026
:100D600070BD02463C3202235370006845688368B8
:100D7000724CA04201D02E4604E00F263605B54342
:100D80004E682E437025AE430D68354345600125FE
:100D9000AE07B04204D0A04202D0694CA04204D1B8
:100DA0008024A34389681943816000201070557026
:100DB00070BDC04670B5002828D005463C3569781E
:100DC000002905D100212970044600F065F820466D
:100DD000022169700268166801218C07A24205D0C1
:100DE000564B9A4202D0564B9A4211D170239E43E1
:100DF00083683343244EB2420EDCA24215D0504CDD
:100E0000A24212D0234CA2420FD03AE0012070BD82
:100E100033461D4EB242F0DD484CA24205D01B4C79
:100E2000A24202D01A4CA2422BD103242402A34393
:100E300004691C43C368D3624368936283693F4E6D
:100E4000B24205D0114EB24202D0114EB24201D18F
:100E500040691063106804260643166051618020C3
:100E600084431C4314602973A970E9702971697166
:100E7000A971E97129726972A972E9726970002019
:100E800070BD1C46D6E7C046FF2B0140004801401C
:100E9000004401400020004080B586B0002105914B
:100EA00004910391029101910122930700689842F5
:100EB00001D006B080BD0E48836813438360836809
:100EC00013400093009B03681343036000681040C5
:100ED00000900491039102200290D003019005201C
:100EE00005900007009901A9FFF764FA06B080BDDC
:100EF0003410024010B53D21415C01291CD101464E
:100F00003D3102220A70016801229007814205D01A
:100F10000A48814202D00A48814208D18868094BB8
:100F200003400020062B06D01404A34203D0086817
:100F300010430860002010BD012010BD002C0140AE
:100F4000000400400700010070B53C22825C012AC9
:100F500001D1022070BD04463C340222627001259A
:100F60002570064600F0A8FD0028284603D0002181
:100F70002170657070BD3068C16840229143C160C6
:100F800001218903C2688A43C260002000212170C8
:100F9000657070BDB0B58421415C012901D102208A
:100FA000B0BD0146843124224A6002681368146887
:100FB0000125AC4314606C07A34313600022426612
:100FC00010460A7020224A60B0BD7047704700008A
:100FD000F0B583B0054668352A7F012A02D1022088
:100FE00003B0F0BD064688362422326007683A68AE
:100FF00002923A680124A2433A6007225206BB6873
:1010000093430B43BB60406E0028204615D0B86860
:101010000190B868400F2E49095C2E4A105CC00050
:10102000FFF766F8044601980001400F2849095C63
:10103000284A105CC000FFF75BF828806C8002989B
:101040003860002028772021316003B0F0BDC04611
:10105000F0B583B0054668352A7F012A02D1022007
:1010600003B0F0BD064688362422326007683A682D
:1010700002923A680124A2433A6007225207BB68F1
:1010800093430B43BB60406E0028204615D0B868E0
:101090000190B868400F0E49095C0E4A105CC00010
:1010A000FFF726F8044601980001400F0849095C43
:1010B000084A105CC000FFF71BF828806C8002987B
:1010C0003860002028772021316003B0F0BDC04691
:1010D000EC2D0008E42D00087047704770470000B1
:1010E000F0B589B00368DF69202501210691CE02A1
:1010F00032462F323A4019680890044680340593EE
:101100009B68202A0495079710D1084628400122A1
:1011100012071A4080181F4616D00898416F002900
:1011200000D158E10898884709B0F0BD30460F302B
:1011300007421F4608D0CF480840069A1207551CA0
:101140003D40281800D091E0039410260846304016
:1011500042424241079D28463040444244411443A4
:101160000898C06E401E421E9041204337D0012493
:101170000126B2053A4050425041EA022246059B00
:1011800000D50246002A00D1A6E0280606D5802018
:101190000840F2051740C01900D0BDE140230A46BF
:1011A0001A40504250416A06224600D50246002AA3
:1011B00000D14AE1B2070A40504250412A02224679
:1011C00000D50246002A00D1B1E1002900DAB3E1DE
:1011D000E80100D5B4E1002C00D0FCE0B4E1089CAB
:1011E0005C34059806628068400600D57BE0618823
:1011F00022886088002800D1EDE08A4200D1EAE030
:10120000EFF310800790012383F310880920450134
:101210000898374606683468AC433460079C84F30A
:101220001088EFF31084079483F310880568AE6884
:10123000C84C3440AC60079C84F31088049C039D28
:10124000EC6000244467C466EFF3108483F31088D5
:1012500003681D68BD431D6084F310880223036783
:10126000511A89B2FFF7B1FE09B0F0BD00920394A4
:101270000798069B184042424241180201910840DB
:10128000444244411443059B05D101201862039C4C
:1012900022690243226101203C46029004406042E0
:1012A000604107998A07069A00D50246002A06D1AE
:1012B000022018620398016904220A430261604215
:1012C000604107994A07069A5ED4002A039C5FD0C2
:1012D0000798000765D46EE0300518620898FFF79C
:1012E000FCFE09B0F0BD22880398006800684368DE
:1012F00099B2002900D19CE0914200D399E063802B
:101300000068800635D4EFF31082012181F3108844
:10131000924B20330898056837462E681E402E6091
:1013200082F31088EFF3108281F3108803689D68C0
:101330008D439D6082F31088EFF3108281F3108853
:1013400003689D684026B5439D6082F31088039B27
:10135000049ADA600022C266EFF3108281F31088EB
:1013600000680168B943016082F310881868FEF7CD
:101370009BFF02210898016721886288891A89B237
:10138000FFF723FE09B0F0BD0246002A039C9FD15F
:101390000420186220690222024322610798000794
:1013A00009D50198049A1040054304D0082018621A
:1013B0002269024322610298820601990A40504242
:1013C0005041079A324208D106980028049A09D061
:1013D000206900280DD109B0F0BD069006980028BC
:1013E000049AF5D11E62206910432061206900280B
:1013F000F1D0079810400DD01140009807400F43DE
:1014000008D00898416F002904D0089C20468847DE
:101410002368039C206928220240986840210840E4
:10142000801829D10898FFF759FE0020206109B0E3
:10143000F0BD8A42CFD100688006CCD50222089840
:101440000267FFF7C2FD09B0F0BDEFF3108186F32C
:1014500010880898026814689C43146081F310880F
:10146000002181670399049A8A6000F039FA09B073
:10147000F0BDC04620010004EFF31080029E86F309
:10148000108809225201089B1C6825689543256035
:1014900080F31088EFF3108086F310881A68946840
:1014A0002C4D2540956080F31088D86E01280CD112
:1014B000EFF31082029880F31088089800680368A0
:1014C0001024A343036082F31088039C0498E06017
:1014D0000020089AD066506710688068400621D5C1
:1014E000EFF31082029880F31088089800688368F0
:1014F0008B43836082F310882168002912D016483C
:1015000088630846FEF708FF002800D163E72068DB
:10151000816B884709B0F0BD0898816F002900D021
:1015200000E658E70898FFF7D9FD09B0F0BD089824
:10153000FFF7D2FD09B0F0BD0026E80100D44AE66D
:101540003446002C00D046E70898FFF73FFD09B06D
:10155000F0BDC046FEFFFFEF251D0008DFFEFFFFC8
:10156000B0B500281ED004460546843568680028BA
:1015700004D100202870204600F02AF8242068605A
:10158000206801680125A9430160A06A002802D0F3
:10159000204600F0F5FA204600F0D2FE002803D0E5
:1015A0002846B0BD0120B0BD0920C00221684A68AC
:1015B00082434A6088682A22904388600868012232
:1015C00002430A60204600F045FB05462846B0BDB0
:1015D000B0B58EB000240D940C940B940A94099429
:1015E0000894079406940594049403940294019437
:1015F0000068554988421FD02349884242D10125BD
:10160000019501A8FFF720F8002801D0FEF738FE69
:10161000A803D149CA680243CA60CA68024000925E
:1016200000980868284308600868284000900098DF
:101630001B250420032112E001204104C64A9368BF
:101640000B43936093680B4000930099116801432A
:10165000116011680140009100991C250C210D902A
:101660000C940B9402200A9009910520000709A907
:10167000FEF7A0FE284621462246FEF7C9FF28466F
:10168000FEF7BAFF0EB0B0BD00380140F0B581B032
:101690008C23C358202B12D1012400290CD0002AFE
:1016A0000AD001231C038568A5420CD1CC070AD0BF
:1016B0000469002C07D11C46204601B0F0BD02246D
:1016C000204601B0F0BD0024C46605686D682D0297
:1016D0000AD5EFF3108583F310889B0606683768F8
:1016E0001F43376085F3108800F0ECFE204601B000
:1016F000F0BD0000B0B50068E649884200D0B0BD3A
:10170000E348124C012521462A46FFF7BFFF207807
:10171000DF210140512901D1A570B0BD0D2801D0B4
:101720000A2808D160680028E9D020180021017239
:1017300061606570B0BD61683E29E0D84A1C626096
:1017400061180872B0BDC04600440040100000207F
:10175000F0B585B0074688203858202810D10120E0
:1017600000290BD0002A09D001200403BD68A5423E
:1017700009D1CD0707D03D69002D04D105B0F0BDDA
:10178000022005B0F0BD019302913D465435394623
:10179000883100200390886021200091086016465F
:1017A000FEF7D8FE04906E802E80B868A04202D169
:1017B000386900285ED0029C019E039A39686888C7
:1017C00000285ED0701C454B2ED0002E49D00392CD
:1017D000C869000608D4FEF7BDFE0499401AB0425D
:1017E00067D839680868F3E7002C03D0207888624E
:1017F000641C07E0039A1088384B18408862921CDA
:10180000039200246888401E688068880028DFD121
:1018100037E0108818408862921C00246888401EB7
:101820006880688800282CD0C869000608D4C86978
:10183000000605D4C869000602D4C8690006F3D5BD
:10184000002CE6D020788862641CE7E710881840F6
:101850008862921C00246888401E6880688800287E
:101860000FD0C869000622D5002CEFD020788862FE
:10187000641CF0E70024029A019E396868880028F9
:10188000A0D1CA690020520614D4002E0FD0721CB9
:1018900015D1009BCA6952060DD4CA6952060AD4F2
:1018A000CA69520607D4CA695206F3D503E0FEF7A7
:1018B00051FE0320009B2021196005B0F0BD0446B5
:1018C000FEF748FE0499401AB042F2D83868016821
:1018D000C0694006F4D52046ECE7C046FF01000091
:1018E0007047FEE7F0B587B0002406940594049491
:1018F0000394029418480168012739430160016884
:101900003940019101990168042211430160006886
:101910001040019001980520000700907D022946A3
:101920002246FEF70FFE0D4829462246FEF70AFE24
:10193000059404940397029502AE00983146FEF791
:1019400039FD059404940397029504483146FEF747
:1019500031FD07B0F0BDC046341002400008005011
:1019600010B588B0174800248461E1430122920732
:1019700014C0046041608460069402940194009451
:101980000838FFF717FA002801D0FEF779FC079412
:10199000059450200490072003900A4803A9FFF7FC
:1019A000D3FA002801D0FEF76BFC0294009405489E
:1019B0006946FFF7CFF9002801D0FEF761FC08B0B7
:1019C00010BDC0465800002010B5174800210C2259
:1019D000164B016241628162E124640218C0016019
:1019E00041608160C260016141610838FFF7B8FD64
:1019F000002801D0FEF744FC0B480021FFF728FB2C
:101A0000002801D0FEF73CFC07480021FFF7E0FA70
:101A1000002801D0FEF734FC0348FFF7BBFA00288A
:101A200001D0FEF72DFC10BDA400002000380140BD
:101A300010B5174800210C22164B016241628162E9
:101A4000E124640218C0016041608160C2600161EC
:101A500041610838FFF784FD002801D0FEF710FC33
:101A60000B480021FFF7F4FA002801D0FEF708FC2C
:101A700007480021FFF7ACFA002801D0FEF700FC70
:101A80000348FFF787FA002801D0FEF7F9FB10BDE5
:101A90003801002000440040FEE77047704780B5E1
:101AA000FEF75CFD80BD00000120C0060149086012
:101AB0007047C04608ED00E070B518C92E4D2540AE
:101AC000026890682D4E06402E431E439660042007
:101AD000C4410839072C0CD80020C0467C44247926
:101AE0006400A744030303030415270870BD052BF6
:101AF00034D1012070BDFF231B0294689C438B6886
:101B0000CD6809691D43090229432143916070BDD5
:101B1000136A146A0125AC4314629469F025AC433E
:101B20000D692D01254395610A24A3438968194352
:101B3000116270BD136A146A1025AC4314620F243D
:101B400024039569A5430C6924032C439461A024C4
:101B5000A343896809011943116270BD136A146AAD
:101B60000125AC4314629469F025AC43096909016D
:101B700021439161136270BDF8FFFEFF88FFCEFF25
:101B8000B0B5816A0A070CD4CA0714D18A071CD4DD
:101B90004A0724D4CA062CD48A0634D44A063CD434
:101BA0004CE00122D20303685C689443826B2243B9
:101BB0005A60CA07EAD00122520403685C68944361
:101BC000C26A22435A608A07E2D5012212040368DE
:101BD0005C689443026B22435A604A07DAD50122BB
:101BE000920403685C689443426B22435A60CA06BD
:101BF000D2D50122120303689C689443C26B22432E
:101C00009A608A06CAD50122520303689C689443ED
:101C1000026C22439A604A0610D50122130502681D
:101C200054689C43456C2C4354609D4206D1032369
:101C30005B0554689C43836C23435360090607D5B6
:101C40000121C904026853688B43C06C184350607B
:101C5000B0BD0000F0B583B00446064684360025CA
:101C6000F560FEF777FC034620680168090721D577
:101C700002952B48009001256905002220461F4649
:101C800000F0BEFC002812D0EFF3108085F310881E
:101C900021680A6880239A430A6080F31088032031
:101CA00020228821029D6250357003B0F0BD20686B
:101CB0003B46029D0068400726D519480090012741
:101CC000B9050022204600F09BFC00281CD0EFF351
:101CD000108087F3108809214901226813688B431B
:101CE000136080F31088EFF3108087F31088216869
:101CF0008A68BA438A6080F31088032020228C21EE
:101D00006250357003B0F0BD20207060B060E566B1
:101D100070212A4628466250357003B0F0BDC04697
:101D2000FFFFFF0180B5806A5E2100224252FFF76B
:101D3000D5F980BDF0B581B08C21415802682229C7
:101D400010D101465C318B88526A1A40836D1A802B
:101D50004A88521E4A809A1C82654A88002A07D007
:101D600001B0F0BD906908210143916101B0F0BD5F
:101D700003468C33EFF31084012282F31088092587
:101D80006D0106683768AF43376084F31088EFF35E
:101D9000108482F310880568AE689643AE6084F3C1
:101DA000108820241C60002303674367046864686C
:101DB00024020AD5EFF3108482F310889506066892
:101DC0003768AF43376084F31088C46E012C15D197
:101DD000C366EFF3108382F310880468256810222D
:101DE0009543256083F310880368DC69E40600D519
:101DF0001A620988FFF7E9F801B0F0BDFFF77AFC35
:101E000001B0F0BDF0B583B004460268D569116831
:101E100090688C23E358222B64D126465C3601223D
:101E20000192B289002A00D10AE127468C37B28894
:101E30000292019A1040C9055AD4002822D103E029
:101E40007088002800D1B6E0A80600D4F8E0206829
:101E5000416A029A1140A26D11807188491E7180F9
:101E6000911CA165C5696807EAD078680028E7D0A9
:101E70002046FFF733F900207860E1E770880028FA
:101E800000D198E0A80600D4DAE02068416A029AFE
:101E90001140A26D11807188491E7180911CA1654D
:101EA000C5696907EAD0AA0705D400290BD4786868
:101EB000002811D1E2E7022202627A680423134368
:101EC0007B600029F3D50421016278680221014377
:101ED000796078680028D1D02046FFF7FFF800200D
:101EE0007860CBE7906908210143916103B0F0BDB0
:101EF000002827D102E0708800285CD0A80600D412
:101F00009EE02068416A029A1140A26D118071889A
:101F1000491E7180911CA165C5696907EBD0E9076D
:101F200004D00199016278680843786078680028D5
:101F3000E1D02046FFF7D2F800207860DBE7708818
:101F4000002838D0A80600D47AE02068416A029AB6
:101F50001140A26D11807188491E7180911CA1658C
:101F6000C5696907EBD0EA0707D1AA070CD4002995
:101F700012D47868002818D1E1E7019B03627A68DF
:101F80001A437A60AA07F2D5022202627A68042311
:101F900013437B600029ECD504210162786802219B
:101FA0000143796078680028C9D02046FFF796F889
:101FB00000207860C3E7EFF31080019D85F310885F
:101FC0002902226813688B43136080F31088EFF3B3
:101FD000108085F3108821688A68D84B13408B6085
:101FE00080F3108820203860002020676067216817
:101FF000496809020BD5EFF31081019A82F310882A
:10200000920623681D6895431D6081F31088E16E78
:10201000012937D1E066EFF31081019880F3108831
:102020002268136810208343136081F310882168AD
:10203000CA69D20600D5086231882046FEF7C5FF7E
:102040007088002824D0B189884221D2EFF3108013
:10205000019D85F31088B949491C226893680B409B
:10206000936080F310880B486067EFF3108085F36E
:10207000108821680A68202313430B6080F31088BE
:1020800003B0F0BD2046FFF735FB70880028DAD199
:1020900003B0F0BD351D0008F0B581B08C2141586A
:1020A0000268222911D101465C318B88526A1A409C
:1020B000836D1A704A88521E4A80826D521C826556
:1020C0004A88002A07D001B0F0BD90690821014379
:1020D000916101B0F0BD03468C33EFF3108401220F
:1020E00082F3108809256D0106683768AF433760B1
:1020F00084F31088EFF3108482F310880568AE68CB
:102100009643AE6084F3108820241C60002303678C
:1021100043670468646824020AD5EFF3108482F3ED
:102120001088950606683768AF43376084F31088D7
:10213000C46E012C15D1C366EFF3108382F31088AF
:102140000468256810229543256083F3108803688E
:10215000DC69E40600D51A620988FEF736FF01B093
:10216000F0BDFFF7C7FA01B0F0BD0000F0B585B0D3
:1021700004460068C5690168019187688C2161582F
:10218000222964D122465C329089002800D1A9E03E
:1021900026468C3690880290012007400490000269
:1021A000019901400191039202E05088002854D027
:1021B000A80600D496E02068406A02990840A16D04
:1021C00008705088401E5080A06D401CA06520689B
:1021D000C5696907E9D0019B5A425A41EB07049B44
:1021E00000D01346002B04D101220262736813430E
:1021F00073607A427A41AB07049B00D51346002BEB
:1022000005D10222026272680423134373607A428A
:102210007A410029049906D4002907D07068002863
:10222000039A0DD1C1E711460029F7D104210162BB
:10223000706802210143716070680028039AB4D06D
:102240002046FEF74BFF039A00207060ADE78169DE
:1022500008220A43826105B0F0BDEFF3108101202E
:1022600080F31088020223681D6895431D6081F386
:102270001088EFF3108180F31088226893682F4D47
:102280001D40956081F31088202131600021216775
:1022900061672268526812020AD5EFF3108280F358
:1022A0001088830625682E689E432E6082F310886E
:1022B000E26E012A38D1E166EFF3108180F31088D5
:1022C0002268136810208343136081F3108821680B
:1022D000CA69D20600D50862039D29882046FEF708
:1022E00074FE2A465088002825D09189884222D23F
:1022F000EFF31080012181F31088104A521C2368EB
:102300009D6815409D6080F31088BB486067EFF3BF
:10231000108081F3108821680A68202313430B6022
:1023200080F3108805B0F0BD2046FFF7E3F9039A6B
:1023300050880028D9D105B0F0BDC046FEFFFFEFA0
:10234000F0B581B0044600680168514A0A40A168AE
:1023500023690B4365691D431543E1690D4305601E
:102360000322120343689343E2681A434260A2695E
:10237000236A13438268474D15401D438560C26A36
:102380000F239A43676A3A43C262434A904209D094
:10239000424A904208D14248406D8007000F41A256
:1023A000125802E0002200E010222646683601257D
:1023B000E803814210D1082A61D8C0467A441279D4
:1023C00052009744045C195C2B5C5C5C3000FEF7A7
:1023D000CBFA002826D151E0082A50D87A44127945
:1023E00052009744044C124C354C4C4C3A00FEF7CA
:1023F000BBFA002830D141E0294800680006400FB0
:10240000411C2C48FDF774FE0DE0254800680006CD
:10241000400F411C2748FDF76BFE1EE0FEF7ECFA6B
:1024200000282BD0676A7900234A515AFDF760FED5
:10243000400061684A081018FDF75AFE0246103A3B
:102440001E498A421BD201400007400F084313E097
:10245000FEF7D2FA002811D0676A7900164A515A5D
:10246000FDF746FE61684A081018FDF741FE014677
:102470001039124A914202D22168C86000251048E2
:10248000306000206067A067284601B0F0BDC046FC
:10249000F369FFCFFFF4FF11004400400038014012
:1024A00000100240000000000400000002000000D4
:1024B00008000000006CDC02CC2D0008F0FF0000DA
:1024C00001000100F0B55C23C25281650021416723
:1024D00003465C335A80856804468C34002D12D044
:1024E00001263707BD4208D03603B54214D105692D
:1024F000002D0ED13D4D9D800FE00569002D05D0CA
:102500003F259D8009E00569002D02D07F259D8033
:1025100003E0FF259D8000E0998061602221216019
:10252000EFF31084012181F310880568AE680E4333
:10253000AE6084F310880C034D07466EAE4202D1A4
:102540009B899A421BD202698368A34204D1002A64
:102550001ED0294A426703E0274B4367002A19D05F
:10256000EFF3108281F310880902006803680B43BF
:1025700020211943016082F310880020F0BD026918
:102580008368A34213D1002A21D0194A426712E07E
:102590001A4A4267EFF3108281F3108800680168DD
:1025A00020230B43036082F310880020F0BD104B02
:1025B0004367002A0DD0EFF3108281F310880B02DD
:1025C000046825681D43256082F3108801E0094AEC
:1025D0004267EFF3108281F310880907006883686F
:1025E0000B43836082F310880020F0BDFF010000E0
:1025F0006D210008051E000899200008351D0008FF
:10260000F0B585B01F4615460E460368D9693140BE
:10261000891B4A424A410021954222D10A9C002C42
:1026200022D00391611C24D1D9693140891B4A42CF
:102630004A41954231D1D9693140891B4A424A41C8
:1026400095422AD1D9693140891B4A424A41954273
:1026500023D1D9693140891B4A424A419542E3D08E
:102660001BE0084605B0F0BDFDF774FF032005B080
:10267000F0BD402E049001D0802E14D1FDF76AFFEA
:10268000C01BA0420CD8049800680168C0693040A3
:10269000801B414241418D42F0D0039805B0F0BD0E
:1026A000032005B0F0BD8430019001200090C002ED
:1026B000029006E0C8693040801B414241418D4292
:1026C000EBD1FDF747FFC11B0320A1423FD804997E
:1026D00009680A685207EDD5CA69120739D4CA6970
:1026E000029B1A42E6D0029A0A62EFF3108201219D
:1026F00081F3108809235B01049C246825689D43AD
:10270000256082F31088EFF3108281F31088049B18
:102710001B689C682A4D25409D60049B82F31088AD
:10272000DA6E012A0BD1EFF3108281F31088196859
:102730000B681024A3430B60049B82F310882021B4
:10274000019CA1600022DA665A672270E16005B040
:10275000F0BD08250D62EFF31081009880F310881A
:1027600009225201049B1B681C6894431C6081F37E
:102770001088EFF3108180F31088049A1268936830
:102780000F4C1C40049B946081F31088D96E012982
:102790000CD1EFF31081012282F310881A681368BC
:1027A0001024A3431360049B81F310882021019A15
:1027B00091600021D96659671170D56005B0F0BDF0
:1027C000FEFFFFEF80B56148FEF78AFC80BDC04682
:1027D00080B50948FEF784FC80BDC04680B582B054
:1027E00001900020C343044801A90122FEF7B0FF75
:1027F000019802B080BDC0463801002090B0FDF7BE
:10280000B7FE00200F900E900D900C900B900A9048
:10281000099008900790069005900490029003900C
:102820003B480168072201929143016040200D90CE
:10283000012001030C9100020B900220089008A8CF
:10284000FEF712F9002801D072B6FEE70299049152
:102850000198039005910691079103A8FDF796FF53
:10286000002801D072B6FEE7FFF73CF8FFF7E0F86A
:10287000FFF7AAF8FFF774F8FDF7C4FCFDF706FDB3
:1028800024A000F063FA08A93920487230200872A9
:102890000298C871887148711120087182200090D7
:1028A000C87001988870A5264E705A250D7027486B
:1028B0000A226423FEF74CFFFDF7EEFC7D20C700E3
:1028C0003846FDF767FDFDF7DDFC04463946FDF7A8
:1028D0000FFC07461EA021463A4600F04FF808A913
:1028E0004F72380A0872380CC871029888715020EB
:1028F0004871102008710098C870019888704E7057
:102900000D700A2264231148FEF722FFD4E7C04667
:1029100000200240456E7669616E646F2076616CBE
:102920006F722064652074657374652031323334AE
:10293000352070617261206F20646973706C6179F9
:10294000204457494E2E2E2E0D000000A4000020DA
:1029500044656275673A2046726571203D20257591
:1029600020487A2C2056616C6F7220456E76696122
:10297000646F203D2025640D0A0000000FB410B5DF
:1029800003A9044B044A029800F018F810BC08BCD4
:1029900004B01847DD2700080000002002E008C846
:1029A000121F08C1002AFAD170477047002001E0C9
:1029B00001C1121F002AFBD170470000FFB58FB084
:1029C0000F460546002606E025280AD0129A1199DE
:1029D00090476D1C761C28780028F5D1304613B03E
:1029E000F0BD002400940123C449029400E0044394
:1029F0006D1C2A781846203A90400842F7D1287872
:102A00002A280ED00223287801463039092915D802
:102A100000990A225143303940181C436D1C009024
:102A2000F1E701CF0090002805DA012040030443BC
:102A3000009840420090022004436D1C28782E2804
:102A400015D10420044368786D1C2A280AD101CFCF
:102A50006D1C02900BE002990A2251433039401854
:102A60006D1C02902878014630390929F3D928785D
:102A70006C2810D006DC4C281AD068280ED06A28A2
:102A800017D104E0742813D07A2812D110E0012065
:102A9000400504430CE00121090501E0032109057B
:102AA0000C436978814203D10120000524186D1C74
:102AB0006D1C2878692877D006DC00288ED0632822
:102AC00023D0642806D16FE06E2808D0732825D063
:102AD000752876D0129A11999047761C62E06002B0
:102AE000400F022807D003280AD0042838680AD0EB
:102AF00006603F1D56E03868F11706604160F8E750
:102B000038680680F5E70670F3E738786946087498
:102B10000020487404A80390012003E03868039063
:102B20000020C0433F1D61070FD5002101E001993E
:102B3000491C029A0191914213DA8142F7DB019A12
:102B40000399895C0029F2D10BE0002101E0019991
:102B5000491C01918142FADB019A0399895C0029A1
:102B6000F5D101990098129B401A00902146119AC4
:102B700000F0D6F801998019461807E003980399E8
:102B80000078491C0391129A119990470198401EB0
:102B90000190401CF2D12146129B119A009800F03E
:102BA000AFF886196D1C16E70A200E90002160020E
:102BB000420F0B91022A05D001CFC117032A06D07C
:102BC00007E021E0FF1DFF08FF0003CF05E000B292
:102BD000C117042A01D140B2C117002905DA0A46FB
:102BE0000021404291412D2202E0220504D52B22F2
:102BF0006B461A71012203E0E2071AD02022F7E7A0
:102C00000D920BAA0C921FE00A200E900021600288
:102C1000420F0B91022A03D001CF032A05D005E011
:102C2000FF1DFF08FF0003CF03E080B2042A00D19C
:102C3000C0B20022E4E70B9B0E9AFDF778FA0C9BDA
:102C40005B1E30320C931A7002460A43F3D10C9883
:102C500003A9081A20300B90600704D50120000456
:102C60008443029801E0012002900B99884201DD23
:102C7000401A00E00020411802900D9809180098B1
:102C8000401A0090E00306D42146129B119A009846
:102C900000F046F8861900200E9008E001A9085CB3
:102CA000129A119990470E98401C761C0E900D991F
:102CB0008842F3DBE0030CD52146129B119A009861
:102CC00000F02EF8861904E0129A302011999047EE
:102CD000761C0299481E02900029F5DC08E00C9849
:102CE0000C990078491C0C91129A11999047761C06
:102CF0000B99481E0B900029F1DC4CE709280100D4
:102D0000F8B5044600251E461746880404D405E09D
:102D100039462020B0476D1C641EF9D52846F8BD01
:102D2000FFB50446002581B01E46C80301D53027F3
:102D300000E02027880404D505E038460399B04711
:102D40006D1C641EF9D5284605B0F0BD10B50446CB
:102D500001E0FFF743FD2078641C03490028F8D107
:102D60000A20FFF73BFD10BD00000020000000001E
:102D70000000000000000000000000000000000053
:102D80000000000000000000000000000100000042
:102D90000200000003000000040000000600000024
:102DA000070000000800000009000000000000000B
:102DB0000000000000000000000000000100000012
:102DC00002000000030000000400000001000200F7
:102DD0000400060008000A000C001000200040005B
:102DE0008000000101010103070100000804020442
:102DF0000801010145737461646F20646F204F7393
:102E000063696C61646F723A2025730D0A00467223
:102E1000657175656E63696120646F204F736369C6
:102E20006C61646F723A20257520487A0D0A004D56
:102E3000696E696D6F3A20256C6C7520487A0D0AB1
:102E400000417475616C3A20252D397520487A202F
:102E50007C204D696E3A20252D397520487A207CDA
:102E6000204D61783A20252D397520487A0A0D00C9
:102E70003E20004849474820283129006F736300ED
:102E8000A02E000800000020100000009C2900086F
:102E9000B02E000810000020C0050000AC2900087A
:102EA000000000000100000004000000001BB7004B
:04000005080000C12E
:00000001FF
